:020000040000FA
:10000000CDEF2BF06C9A1200AAEF26F007EC2CF043
:100010006B846BB4FED71200FAEF28F0D9CFE5FF5E
:10002000E1CFD9FF00C0E5FF01C0E5FF02C0E5FF59
:1000300003C0E5FF04C0E5FF05C0E5FF06C0E5FF1E
:1000400007C0E5FF08C0E5FF09C0E5FF0AC0E5FFFE
:100050000BC0E5FF0CC0E5FF0DC0E5FF0EC0E5FFDE
:100060000FC0E5FF10C0E5FF11C0E5FF12C0E5FFBE
:1000700013C0E5FF14C0E5FF15C0E5FF16C0E5FF9E
:1000800017C0E5FF18C0E5FF19C0E5FF1AC0E5FF7E
:100090001BC0E5FF1CC0E5FF1DC0E5FF1EC0E5FF5E
:1000A000020EDBCF00F0030EDBCF01F0040EDBCF3E
:1000B00002F0050EDBCF03F0060EDBCF04F0070ED7
:1000C000DBCF05F0080EDBCF06F0090EDBCF07F023
:1000D0000A0EDBCF08F0096A0A6A02C00DF00D5063
:1000E000800A0DE102500101986F0150976F005096
:1000F000966F010E016E960E006E800E026E03C0AA
:10010000E9FF04C0F3FF055051EC2CF00B6E0B50CF
:10011000D8B4FCEF03F00B50250A02E0E3EF03F044
:100120000C6A0D6A0E6A0F6A106A0A0E116E126A64
:10013000136A146A200E156E1668176A2B0E186E55
:10014000032A02E3044A052A03C0E9FF04C0F3FFBF
:10015000055051EC2CF0196E250A13E11950E56E8B
:100160000250E56E0150E56E0050E56EC1EC1DF0E9
:10017000040EE126094A0A2A032A02E3044A052A50
:10018000BED71950300A06E1300E156E032A02E37D
:10019000044A052A03C0E9FF04C0F3FF055051ECEF
:1001A0002CF02D0A06E1010E146E032A02E3044A24
:1001B000052A03C0E9FF04C0F3FF055051EC2CF001
:1001C000200A08E1010E176E200E186E032A02E3C2
:1001D000044A052A03C0E9FF04C0F3FF055051ECAF
:1001E0002CF02B0A06E1010E176E032A02E3044AE3
:1001F000052A03C0E9FF04C0F3FF055051EC2CF0C1
:10020000196E800F4F0F2DE31950800F460F29E212
:1002100003C019F004C01AF005C01BF019C0E9FFB3
:100220001AC0F3FF1B5051EC2CF01C6E800F500FC6
:1002300012E31C50800F460F0EE213500A0DF3CF4D
:100240001DF01D501C26D00E1C24136E192A02E32B
:100250001A4A1B2AE3D719C003F01AC004F01BC0C6
:1002600005F003C0E9FF04C0F3FF055051EC2CF08A
:100270002E0A2EE1032A02E3044A052A166A03C065
:1002800019F004C01AF005C01BF019C0E9FF1AC02C
:10029000F3FF1B5051EC2CF01C6E800F500F12E33B
:1002A0001C50800F460F0EE216500A0DF3CF1DF0C2
:1002B0001D501C26D00E1C24166E192A02E31A4A61
:1002C0001B2AE3D719C003F01AC004F01BC005F0C5
:1002D00003C0E9FF04C0F3FF055051EC2CF0196E88
:1002E0006C0A07E1010E0C6E032A02E3044A052A98
:1002F00009D01950680A06E1010E0E6E032A02E3C6
:10030000044A052A03C0E9FF04C0F3FF055051EC7D
:100310002CF0750A06E1010E106E032A02E3044A6E
:10032000052A03C0E9FF04C0F3FF055051EC2CF08F
:10033000196E730A05E1010E0D6E200E156E3FD089
:100340001950780A03E1100E116E39D01950580A6D
:1003500005E1100E116E010E126E31D01950630AB4
:1003600002E1116A2CD019506F0A03E1080E116ED8
:1003700026D01950660A03E1010E0F6E20D01950E5
:10038000640A1DE01950690A1AE0105005E0FF0EDA
:1003900003260422052213D01950E56E0250E56EA3
:1003A0000150E56E0050E56EC1EC1DF0040EE12633
:1003B000094A0A2A032A02E3044A052AA0D60D5054
:1003C00021E00650030F0D6E000E0720196E000E7F
:1003D00008201A6E0DC006F019C007F01AC008F008
:1003E000FD0E0D26FF0E19221A220DC0E9FF19C0BD
:1003F000F3FF1A509CEC2AF00D6EF3CF19F0F4CFF6
:100400001AF032D10F50D8B43ED00650040F0F6E00
:10041000000E07201B6E000E08201C6E0FC006F099
:100420001BC007F01CC008F0FC0E0F26FF0E1B229D
:100430001C220FC0E9FF1BC0F3FF1C5022EC2AF066
:100440000F6EF3CF1BF0F4CF1CF0E9CF1DF00A0EB6
:10045000196E800E0D6E800E1A6E1650E56E240E0B
:10046000E56E0A0EE56E800EE56E1D50E56E1C50C1
:10047000E56E1B50E56E0F50E56EBCEC12F0080EF9
:10048000E1261668F1D016680C5023E00650040FE0
:100490000C6E000E07200F6E000E08201B6E0CC0A5
:1004A00006F00FC007F01BC008F0FC0E0C26FF0E74
:1004B0000F221B220CC0E9FF0FC0F3FF1B5022ECE0
:1004C0002AF00C6EF3CF0FF0F4CF1BF0E9CF1CF045
:1004D0006AD00E5032E00650020F0E6E000E07205A
:1004E0001D6E000E08201E6E0EC006F01DC007F027
:1004F0001EC008F0FE0E0E26FF0E1D221E220EC08C
:10050000E9FF1DC0F3FF1E50A1EC2BF00E6E0EC0D4
:100510000CF0E86A0EBEFF0E0F6E1B6E1C6E1150C3
:100520000A0A03E11050D8B43ED00C500E6E0EC033
:100530000CF00F6A1B6A1C6A36D00650020F0E6E52
:10054000000E07201D6E000E08201E6E0EC006F065
:100550001DC007F01EC008F0FE0E0E26FF0E1D2265
:100560001E220EC0E9FF1DC0F3FF1E50A1EC2BF0B0
:100570000E6EF3CF1DF00EC00CF01DC00FF0E86A38
:100580001DBEFF0E1B6E1C6E11500A0A02E11050B8
:100590000AE00C500E6E0F501D6E0EC00CF01DC008
:1005A0000FF01B6A1C6A0A0E196E810E0D6E800E0A
:1005B0001A6E1150D8B440D0105013E01150E56EAF
:1005C0000A0EE56E810EE56E1C50E56E1B50E56E61
:1005D0000F50E56E0C50E56EDAEC16F0070EE126D2
:1005E00012D01150E56E0A0EE56E810EE56E1C50BC
:1005F000E56E1B50E56E0F50E56E0C50E56E4FEC4E
:1006000022F0070EE12617502FE00DC0E9FF19C0B8
:10061000F3FF1A5051EC2CF02D0A26E0FF0E0D26A8
:1006200019221A2218C0E5FF0DC0E9FF19C0F3FF17
:100630001A50DBEC2CF018D00CC0E5FF0DC0E9FF20
:1006400019C0F3FF1A50DBEC2CF00D50010F0C6EAB
:10065000000E19200E6E000E1A20E56A0CC0E9FF8C
:100660000EC0F3FFDBEC2CF00DC00CF019C00EF047
:100670001AC00FF013C010F0105010E00CC0E9FFCA
:100680000EC0F3FF0F5051EC2CF0176E175006E020
:100690000C2A02E30E4A0F2A1006EED710C013F000
:1006A00014501EE109C00CF00AC00EF010C00FF08B
:1006B0000F5010E01550E56E0250E56E0150E56EEA
:1006C0000050E56EC1EC1DF0040EE1260C4A0E2A26
:1006D0000F06EED70CC009F00EC00AF00FC013F0E1
:1006E00016C00CF00DC00DF019C00EF01AC00FF0BE
:1006F00009C010F00AC015F00DC0E9FF0EC0F3FFED
:100700000F5051EC2CF0166E1650D8B43ED00CC0E1
:1007100016F0176A161E171E1650171005E00CC0AB
:1007200016F00C06165031E00DC0E9FF0EC0F3FFC5
:100730000F5051EC2CF0116E125010E01150E56E7C
:100740005EEC2BF0166EE652165004E01150166E59
:10075000169A02D011C016F016C011F01150E56EB5
:100760000250E56E0150E56E0050E56EC1EC1DF0E3
:10077000040EE1260D2A02E30E4A0F2A104A152A1A
:100780001350D8B4B9D71306B7D710C009F015C0A5
:100790000AF014502BE010C00CF015C00DF013C07F
:1007A0000EF00E501FE0200EE56E0250E56E015077
:1007B000E56E0050E56EC1EC1DF0040EE1260C4A1A
:1007C0000D2A0E06EED70B50E56E0250E56E015075
:1007D000E56E0050E56EC1EC1DF0040EE126094AFD
:1007E0000A2A04D00CC009F00DC00AF0032A02E363
:1007F000044A052A7FEF00F00AC0F3FF0950E4CF56
:100800001EF0E4CF1DF0E4CF1CF0E4CF1BF0E4CFEA
:100810001AF0E4CF19F0E4CF18F0E4CF17F0E4CFEA
:1008200016F0E4CF15F0E4CF14F0E4CF13F0E4CFEA
:1008300012F0E4CF11F0E4CF10F0E4CF0FF0E4CFEA
:100840000EF0E4CF0DF0E4CF0CF0E4CF0BF0E4CFEA
:100850000AF0E4CF09F0E4CF08F0E4CF07F0E4CFEA
:1008600006F0E4CF05F0E4CF04F0E4CF03F0E4CFEA
:1008700002F0E4CF01F0E4CF00F0E4CFD9FF1200A2
:1008800005C0E5FF06C0E5FF07C0E5FF08C0E5FFBE
:1008900009C0E5FF0AC0E5FF0BC0E5FF0CC0E5FF9E
:1008A0000DC0E5FF0EC0E5FF0FC0E5FF10C0E5FF7E
:1008B00011C0E5FF12C0E5FF13C0E5FF14C0E5FF5E
:1008C00015C0E5FF16C0E5FF17C0E5FF18C0E5FF3E
:1008D00019C0E5FF1AC0E5FF1BC0E5FF1CC0E5FF1E
:1008E0001DC0E5FF000E00B0050F066AF60F02E31B
:1008F000062AFCD70A0F056E042E03D0FB0F01E376
:10090000062A065000B0020F00B2050F076AF60F64
:1009100002E3072AFCD70A0F066E042E03D0FB0F52
:1009200001E3072A075000B0060F00B2020F00B41F
:10093000050F086AF60F02E3082AFCD70A0F076EB4
:10094000042E03D0FB0F01E3082A085000B2010F68
:1009500000B4020F00B6050F096AF60F02E3092A78
:10096000FCD70A0F086E042E03D0FB0F01E3092AFF
:10097000095000B0090F00B2080F00B4060F00B60E
:10098000020F00B8050F0A6AF60F02E30A2AFCD725
:100990000A0F096E042E03D0FB0F01E30A2A0A5046
:1009A00000B0030F00B2070F00B4050F00B6010F2F
:1009B00000B8020F00BA050F0B6AF60F02E30B2A0C
:1009C000FCD70A0F0A6E042E03D0FB0F01E30B2A9B
:1009D0000B5000B0050F00B4010F00B6030F00B8B4
:1009E000060F00BA020F00BC050F0C6AF60F02E3F7
:1009F0000C2AFCD70A0F0B6E042E03D0FB0F01E369
:100A00000C2A0C5000B0070F00B2050F00BA010FFE
:100A100000BC020F00BE050F0D6AF60F02E30D2A9F
:100A2000FCD70A0F0C6E042E03D0FB0F01E30D2A36
:100A30000D5000B0070F00B2050F00B4010F00B653
:100A4000020F00B8040F00BA080F00BC060F00BE6A
:100A5000020F01B0050F0E6AF60F02E30E2AFCD753
:100A60000A0F0D6E042E03D0FB0F01E30E2A0E5069
:100A700000B0040F00B2090F00B4090F00B6080F50
:100A800000B8060F00BA020F00BC050F00BE010F30
:100A900001B0020F01B2050F0F6AF60F02E30F2A31
:100AA000FCD70A0F0E6E042E03D0FB0F01E30F2AB2
:100AB0000F5000B0040F00B2080F00B4070F00B6CB
:100AC000050F00B8010F00BA030F00BC060F00BEEF
:100AD000030F01B0060F01B2020F01B4050F106A37
:100AE000F60F02E3102AFCD70A0F0F6E042E03D074
:100AF000FB0F01E3102A105000B0060F00B2020FE6
:100B000000B4050F00B6010F00B8030F00BA060FBE
:100B100000BC020F00BE050F01B2010F01B4020FAD
:100B200001B6050F116AF60F02E3112AFCD70A0F6E
:100B3000106E042E03D0FB0F01E3112A115000B0F8
:100B4000040F00B2090F00B4080F00B6070F00B879
:100B5000040F00BA080F00BC070F00BE040F01B05D
:100B6000090F01B2080F01B4060F01B6020F01B858
:100B7000050F126AF60F02E3122AFCD70A0F116E54
:100B8000042E03D0FB0F01E3122A125000B4010F10
:100B900000B6030F00B8070F00BA040F00BC090F1E
:100BA00000BE090F01B0080F01B2070F01B4050F15
:100BB00001B6010F01B8020F01BA050F136AF60F53
:100BC00002E3132AFCD70A0F126E042E03D0FB0F88
:100BD00001E3132A135000B0060F00B2020F00B455
:100BE000040F00B6080F00B8060F00BA030F00BCD0
:100BF000060F00BE030F01B0070F01B2050F01B4CD
:100C0000010F01B6030F01B8060F01BA020F01BCB4
:100C1000050F146AF60F02E3142AFCD70A0F136EAD
:100C2000042E03D0FB0F01E3142A145000B0090F67
:100C300000B2090F00B4080F00B6060F00B8030F8A
:100C400000BA070F00BC040F00BE090F01B0080F67
:100C500001B2070F01B4050F01BA010F01BC020F69
:100C600001BE050F156AF60F02E3152AFCD70A0F1D
:100C7000146E042E03D0FB0F01E3152A155000B0AB
:100C8000050F00B2010F00B4030F00B6070F00B844
:100C9000050F00BC010F00BE020F01B0050F01B22D
:100CA000010F01B4030F01B6070F01B8040F01BA19
:100CB000080F01BC060F01BE020F02B0050F166A35
:100CC000F60F02E3162AFCD70A0F156E042E03D086
:100CD000FB0F01E3162A165000B2010F00B4020FF9
:100CE00000B6040F00B8090F00BA090F00BC080FC6
:100CF00000BE060F01B0020F01B2050F01B8010FCF
:100D000001BA020F01BC050F01BE010F02B0020FB4
:100D100002B2050F176AF60F02E3172AFCD70A0F73
:100D2000166E042E03D0FB0F01E3172A175000BAEA
:100D3000010F00BC030F00BE070F01B0050F01B487
:100D4000010F01B6020F01B8040F01BA080F01BC70
:100D5000060F01BE030F02B0060F02B2020F02B46B
:100D6000050F186AF60F02E3182AFCD70A0F176E50
:100D7000042E03D0FB0F01E3182A185001B0010F15
:100D800001B2030F01B4060F01B6020F01B8040F40
:100D900001BA080F01BC070F01BE050F02B2010F17
:100DA00002B4020F02B6050F196AF60F02E3192A00
:100DB000FCD70A0F186E042E03D0FB0F01E3192A8B
:100DC000195001B6010F01B8020F01BA040F01BC9E
:100DD000090F01BE090F02B0090F02B2080F02B4D9
:100DE000060F02B6020F02B8050F1A6AF60F02E3E9
:100DF0001A2AFCD70A0F196E042E03D0FB0F01E349
:100E00001A2A1A5001BE010F02B0030F02B2070FD7
:100E100002B4050F02B6010F02B8020F02BA050FA5
:100E20001B6AF60F02E31B2AFCD70A0F1A6E042E68
:100E300003D0FB0F01E31B2A1B5002B4010F02B6C3
:100E4000030F02B8060F02BA020F02BC050F1C6A9C
:100E5000F60F02E31C2AFCD70A0F1B6E042E03D0E8
:100E6000FB0F01E31C2A1C5002BA010F02BC020F47
:100E700002BE050F1D6AF60F02E31D2AFCD70A0FFA
:100E80001C6E042E03D0FB0F01E31D2A300FEE6E03
:100E90001B50300FEE6E1A50300FEE6E1950300F9F
:100EA000EE6E1850300FEE6E1750300FEE6E16507B
:100EB000300FEE6E1550300FEE6E1450300FEE6E98
:100EC0001350300FEE6E1250300FEE6E1150300F87
:100ED000EE6E1050300FEE6E0F50300FEE6E0E5063
:100EE000300FEE6E0D50300FEE6E0C50300FEE6E78
:100EF0000B50300FEE6E0A50300FEE6E0950300F6F
:100F0000EE6E0850300FEE6E0750300FEE6E06504A
:100F1000300FEE6E0550300FEE6E170EE4CF1DF061
:100F2000E4CF1CF0E4CF1BF0E4CF1AF0E4CF19F0CB
:100F3000E4CF18F0E4CF17F0E4CF16F0E4CF15F0CB
:100F4000E4CF14F0E4CF13F0E4CF12F0E4CF11F0CB
:100F5000E4CF10F0E4CF0FF0E4CF0EF0E4CF0DF0CB
:100F6000E4CF0CF0E4CF0BF0E4CF0AF0E4CF09F0CB
:100F7000E4CF08F0E4CF07F0E4CF06F0E4CF05F0CB
:100F80001200D9CFE5FFE1CFD9FF00C0E5FF01C0D6
:100F9000E5FF02C0E5FF03C0E5FF04C0E5FF05C0B3
:100FA000E5FF06C0E5FF07C0E5FF08C0E5FF09C093
:100FB000E5FF0AC0E5FF0BC0E5FF0CC0E5FF0DC073
:100FC000E5FF0EC0E5FF020EDBCF00F0016A010E67
:100FD0000014026E040E0014036E020E0016046A62
:100FE000040E045CD8B0D8D10F01102B080E105D90
:100FF00001E3106B0F011039E8441F0B056E066A00
:10100000C40E0526010E062205C0E9FF06C0EAFF50
:10101000EFCF05F0070E1015066E010E076E086A79
:10102000065006E0E86CD89007360836010FFCE35E
:10103000096A055007160950081607500810D0E035
:101040000F011051020DF450066EF3CF05F0260E7D
:101050000524076E0F0E0620086E07C0E9FF08C0C2
:10106000EAFFEECF07F0EFCF08F00250D8B49DD0E2
:10107000100E0524096E010E06200A6E09C0E9FF54
:101080000AC0EAFFEECF09F0EFCF0AF00850800F58
:10109000F36E0A50800FF35C02E10950075C03E233
:1010A000076A086A60D0200E0526010E062205C0D8
:1010B000E9FF06C0EAFFEECF05F0EFCF06F00650DD
:1010C000800FF36E0850800FF35C02E10750055C5F
:1010D00004E207683F0E086E46D00950075C0B6EAD
:1010E0000A5008580C6EE86A0CBEFF0E0D6EE56ED5
:1010F0000D50E56E0C50E56E0B50E56EE56AE56A45
:10110000400EE56E000EE56ACEEC13F00B6EF3CFE9
:101110000CF0F4CF0DF0E9CF0EF0080EE1260950E7
:10112000055C096E0A5006580A6EE86A0ABEFF0E90
:10113000056EE56E0550E56E0A50E56E0950E56EE8
:101140000E50E56E0D50E56E0C50E56E0B50E56EE1
:10115000ACEC1CF0056EF3CF06F0080EE12605504E
:10116000076E0650086E0F010D51800FF36E085088
:10117000800FF35C02E107500C5D03E3076A086A25
:1011800014D00F010C51FF08056E3F0E0D55066E71
:101190000850800FF36E0650800FF35C02E105509B
:1011A000075C03E307683F0E086E0F011051020D44
:1011B000F450066EF3CF05F0000E0526010E062250
:1011C00005C0E9FF06C0EAFFEECF05F0EFCF06F05D
:1011D0000550075C056E06500858066ED88006AEAE
:1011E000D89004E3061E056CD8B4062A042A0F0121
:1011F0000D51800FF36E0650800FF35C02E1055035
:101200000C5DD8B0EDD60F011051020DF4500A6EEE
:10121000F3CF09F0000E0926010E0A2209C0E9FFEA
:101220000AC0EAFF07C0EEFF08C0EFFF0350D8B4C2
:1012300059D01051020DF4500A6EF3CF09F0300E60
:1012400009240B6E010E0A200C6E0BC0E9FF0CC0C6
:10125000EAFFEECF0DF0EFCF0EF00D500E10D8B428
:1012600041D0EA0E09260A0E0A2209C0E9FF0AC087
:10127000EAFFEECF09F0EFCF0AF00950075C056EE8
:101280000A500858066E05101CE00650800F800FAB
:1012900002E1010E055C096A09360E50800F800FCD
:1012A00002E1010E0D5C0D6A0D3609500D1809E1C1
:1012B0000BC0E9FF0CC0EAFF05C0EEFF06C0EFFF60
:1012C0008FD60F011051020DF450066EF3CF05F0CA
:1012D000300E0526010E062205C0E9FF06C0EAFF12
:1012E000EE6AEF6A0050D8B443D001500EE101C05D
:1012F00005F0012A066A110E05260F0E062205C00A
:10130000E9FF06C0EAFF420EEF6E01C005F0012AB8
:10131000066A110E05260F0E0622640E0F01102517
:10132000096E05C0E9FF06C0EAFF09C0EFFF01C072
:1013300005F0012A066A110E05260F0E0622085036
:10134000096E05C0E9FF06C0EAFF09C0EFFF01C052
:1013500005F0012A066A110E05260F0E0622075017
:10136000096E05C0E9FF06C0EAFF09C0EFFF38D6E5
:1013700010CF05F00850E56E0750E56EE56A0550A0
:10138000E56E000EE56E360EE56EE80EE56EB2EC2B
:1013900025F0070EE12624D604C002F001501CE01F
:1013A00000501AE001C000F0012A036A110E002665
:1013B0000F0E032200C0E9FF03C0EAFF0A0EEF6E22
:1013C0000150E56E800EE56E0F0EE56E110EE56EB6
:1013D000C8EC1EF0040EE1260250E4CF0EF0E4CF7C
:1013E0000DF0E4CF0CF0E4CF0BF0E4CF0AF0E4CF43
:1013F00009F0E4CF08F0E4CF07F0E4CF06F0E4CF43
:1014000005F0E4CF04F0E4CF03F0E4CF02F0E4CF42
:1014100001F0E4CF00F0E4CFD9FF120000C0E5FFF7
:1014200001C0E5FF02C0E5FF03C0E5FF04C0E5FF22
:1014300005C0E5FF06C0E5FF07C0E5FF929692985C
:10144000929E949093969492939AA6EC28F0006EB4
:10145000F3CF01F0F4CF02F0E9CF03F0A6EC28F0CF
:10146000046EF3CF05F0F4CF06F0E9CF07F000509B
:10147000045E0150055A0250065A0350075A079E4F
:10148000000E075C08E1000E065C05E13A0E055C03
:1014900002E1980E045CE2E38A9A030EE56E000E08
:1014A000E56A1EEC27F0E652E652030EE56E010EE9
:1014B000E56E1EEC27F0E652E652A6EC28F0006E30
:1014C000F3CF01F0F4CF02F0E9CF03F0A6EC28F05F
:1014D000046EF3CF05F0F4CF06F0E9CF07F000502B
:1014E000045E0150055A0250065A0350075A079EDF
:1014F000000E075C08E1000E065C05E1130E055CBA
:1015000002E1880E045CE2E3030EE56E000EE56A7C
:101510001EEC27F0E652E652030EE56E010EE56E74
:101520001EEC27F0E652E652A6EC28F0006EF3CF50
:1015300001F0F4CF02F0E9CF03F0A6EC28F0046E3E
:10154000F3CF05F0F4CF06F0E9CF07F00050045ECA
:101550000150055A0250065A0350075A079E000EC2
:10156000075C08E1000E065C05E1000E055C02E187
:10157000C80E045CE2E3320EE56E000EE56ABCECD8
:1015800029F0E652E652320EE56E010EE56EBCEC35
:1015900029F0E652E652A6EC28F0006EF3CF01F0F7
:1015A000F4CF02F0E9CF03F0A6EC28F0046EF3CFFD
:1015B00005F0F4CF06F0E9CF07F00050045E0150CB
:1015C000055A0250065A0350075A079E000E075C40
:1015D00008E1000E065C05E1000E055C02E1280E44
:1015E000045CE2E3280EE56E000EE56ABCEC29F02F
:1015F000E652E652280EE56E010EE56EBCEC29F0CF
:10160000E652E652A6EC28F0006EF3CF01F0F4CFDC
:1016100002F0E9CF03F0A6EC28F0046EF3CF05F05A
:10162000F4CF06F0E9CF07F00050045E0150055AF0
:101630000250065A0350075A079E000E075C08E145
:10164000000E065C05E1000E055C02E1280E045C5C
:10165000E2E3100EE56E000EE56ABCEC29F0E652FE
:10166000E652100EE56E010EE56EBCEC29F0E65276
:10167000E652A6EC28F0006EF3CF01F0F4CF02F0B2
:10168000E9CF03F0A6EC28F0046EF3CF05F0F4CF19
:1016900006F0E9CF07F00050045E0150055A0250F1
:1016A000065A0350075A079E000E075C08E1000E19
:1016B000065C05E1000E055C02E1280E045CE2E335
:1016C000010EE56E000EE56ABCEC29F0E652E6522A
:1016D000010EE56EE56EBCEC29F0E652E652A6EC92
:1016E00028F0006EF3CF01F0F4CF02F0E9CF03F061
:1016F000A6EC28F0046EF3CF05F0F4CF06F0E9CFA6
:1017000007F00050045E0150055A0250065A03507B
:10171000075A079E000E075C08E1000E065C05E113
:10172000060E055C02E1400E045CE2E3060EE56E87
:10173000000EE56ABCEC29F0E652E652060EE56EB4
:10174000010EE56EBCEC29F0E652E652A6EC28F05C
:10175000006EF3CF01F0F4CF02F0E9CF03F0A6EC76
:1017600028F0046EF3CF05F0F4CF06F0E9CF07F0D0
:101770000050045E0150055A0250065A0350075AA1
:10178000079E000E075C08E1000E065C05E1000EF6
:10179000055C02E1280E045CE2E30C0EE56E000E2F
:1017A000E56ABCEC29F0E652E6520C0EE56E010E3D
:1017B000E56EBCEC29F0E652E652A6EC28F0006E8D
:1017C000F3CF01F0F4CF02F0E9CF03F0A6EC28F05C
:1017D000046EF3CF05F0F4CF06F0E9CF07F0005028
:1017E000045E0150055A0250065A0350075A079EDC
:1017F000000E075C08E1000E065C05E1000E055CCA
:1018000002E1280E045CE2E3E4CF07F0E4CF06F047
:10181000E4CF05F0E4CF04F0E4CF03F0E4CF02F02E
:10182000E4CF01F0E4CF00F0120000C0E5FF0F01AB
:10183000022B010E025DD8A07DD10B0E025DD8B047
:1018400079D10205006EFA6AFB6A0034FA36E83490
:10185000FA36FC0B640FE56E180EFA22000EFB221E
:10186000E450F96E46EF0CF0A3EF0CF0E8EF0CF04B
:101870003AEF0DF04CEF0DF059EF0DF066EF0DF073
:1018800073EF0DF080EF0DF08DEF0DF00101A4B9B5
:1018900003D001015A8302D001015A930101A4B778
:1018A00003D001015A8702D001015A970101A4B562
:1018B00003D001015A8B02D001015A9B0101A4B34C
:1018C00003D001015A8F02D001015A9F0101A4B136
:1018D00003D001015B8302D001015B930101A3B33B
:1018E00003D001015B8502D001015B950101A2B328
:1018F00003D001015B8702D001015B970101A4BF06
:1019000003D001015B8902D001015B990101A4BBF5
:1019100003D001015B8D02D001015B9D0101A4BDDB
:1019200003D001015B8F02D001015B9F030EE56EC6
:10193000800EE56E010EE56E570EE56E34EC20F07C
:10194000040EE126FBD0030EE56E800EE56E010E5F
:10195000E56E570EE56E4AEC1EF0040EE12601011D
:1019600058A103D00101A58902D00101A599010167
:1019700058A503D00101A58702D00101A597010157
:1019800058A903D00101A58502D00101A595010147
:1019900058AD03D00101A58302D00101A593010137
:1019A00059A103D00101A58102D00101A591010136
:1019B00059A903D00101A58D02D00101A59D010106
:1019C00059AB03D00101A58BB9D00101A59BB6D0BD
:1019D0000101A3B103D001015F8102D001015F9138
:1019E0000101A2B103D001015F8302D001015F9325
:1019F0000101A3B503D001015F8502D001015F950C
:101A00000101A2B503D001015F8702D001015F97F8
:101A10000101A2B703D001015F8902D001015F99E2
:101A20000101A3B703D001015F8B02D001015F9BCD
:101A30000101A2B903D001015F8D02D001015F9DB8
:101A40000101A3B903D001015F8F02D001015F9FA3
:101A50000101A651FF0B0101606F030EE56E800EC0
:101A6000E56E010EE56E5C0EE56E34EC20F0040EC2
:101A7000E12664D0030EE56E800EE56E010EE56E84
:101A80005C0EE56E4AEC1EF0040EE12601015E518B
:101A9000FF0B0101A76F52D0020EE56E800EE56EBE
:101AA000010EE56E610EE56E34EC20F0040EE126C9
:101AB00045D0010EE56E800EE56E010EE56E610EFD
:101AC000E56E4AEC1EF0040EE12638D0020EE56EFB
:101AD000800EE56E010EE56E660EE56E34EC20F0CC
:101AE000040EE1262BD0010EE56E800EE56E010E90
:101AF000E56E660EE56E4AEC1EF0040EE1261ED081
:101B0000020EE56E800EE56E010EE56E6B0EE56E63
:101B100034EC20F0040EE12611D0010EE56E800EAB
:101B2000E56E010EE56E6B0EE56E4AEC1EF0040EDE
:101B3000E12604D00F01026B90EC1BF0E4CF00F023
:101B4000120000C0E5FF01C0E5FF02C0E5FF03C0D1
:101B5000E5FF010E006E420E0101406F0101AD5123
:101B6000D8A4A1D082A203D00101AE8102D001018C
:101B7000AE9181A603D00101AE8302D00101AE93E4
:101B800081AA03D00101AE8502D00101AE95010109
:101B9000A5AD03D00101AE8702D00101AE970101CE
:101BA000A58D0101AE51FF0B0101A0190DE0020E40
:101BB0000101416F030E006E0101AE51FF0B016E7A
:101BC00001C0A0F10101426F0101A9510101A81951
:101BD00020E000C001F0002A026A400E0126010E3A
:101BE000022201C0E9FF02C0EAFF030EEF6E00C04F
:101BF00001F0002A026A400E0126010E0222A8C14D
:101C000003F003C0A9F101C0E9FF02C0EAFF03C06D
:101C1000EFFF0101AB510101AA1920E000C001F062
:101C2000002A026A400E0126010E022201C0E9FFCD
:101C300002C0EAFF040EEF6E00C001F0002A026A43
:101C4000400E0126010E0222AAC103F003C0ABF12F
:101C500001C0E9FF02C0EAFF03C0EFFF0101A1518B
:101C60000101AC1920E000C001F0002A026A400E18
:101C70000126010E022201C0E9FF02C0EAFF050EA3
:101C8000EF6E00C001F0002A026A400E0126010E2C
:101C90000222ACC103F003C0A1F101C0E9FF02C000
:101CA000EAFF03C0EFFF0101A551FF0B01019C19E1
:101CB00022E000C001F0002A026A400E0126010E57
:101CC000022201C0E9FF02C0EAFF010EEF6E00C070
:101CD00001F0002A026A400E0126010E02220101D3
:101CE000A551FF0B036E03C09CF101C0E9FF02C0C8
:101CF000EAFF03C0EFFF01016251FF0B01019D19D3
:101D000022E000C001F0002A026A400E0126010E06
:101D1000022201C0E9FF02C0EAFF0A0EEF6E00C016
:101D200001F0002A026A400E0126010E0222010182
:101D30006251FF0B036E03C09DF101C0E9FF02C0B9
:101D4000EAFF03C0EFFF01016751FF0B01019E197C
:101D500022E000C001F0002A026A400E0126010EB6
:101D6000022201C0E9FF02C0EAFF0B0EEF6E00C0C5
:101D700001F0002A026A400E0126010E0222010132
:101D80006751FF0B036E03C09EF101C0E9FF02C063
:101D9000EAFF03C0EFFF01016C51FF0B01019F1926
:101DA00022E000C001F0002A026A400E0126010E66
:101DB000022201C0E9FF02C0EAFF0C0EEF6E00C074
:101DC00001F0002A026A400E0126010E02220101E2
:101DD0006C51FF0B036E03C09FF101C0E9FF02C00D
:101DE000EAFF03C0EFFF020E005C0DE3002A005083
:101DF000E56E800EE56E010EE56E400EE56EC8ECF8
:101E00001EF0040EE126E4CF03F0E4CF02F0E4CFAD
:101E100001F0E4CF00F0120000C0E5FF01C0E5FFD3
:101E200002C0E5FF03C0E5FF04C0E5FF05C0E5FF14
:101E300006C0E5FF07C0E5FF08C0E5FF09C0E5FFF4
:101E40000AC0E5FF0BC0E5FF0CC0E5FF0DC0E5FFD4
:101E50000EC0E5FF000E00B0010F00B2020F00B48B
:101E6000040F00B6080F00B8060F00BA020F00BC3E
:101E7000040F00BE080F01B0060F01B2020F01B43B
:101E8000040F01B6080F01B8060F01BA020F01BC1A
:101E9000040F01BE080F02B0060F02B2020F02B417
:101EA000040F02B6080F02B8060F02BA020F02BCF6
:101EB000040F02BE080F056AF60F02E3052AFCD7DD
:101EC0000A0F046E055000B8010F00BA030F00BCE2
:101ED000060F00BE020F01B0050F01B2010F01B4E1
:101EE000020F01B6040F01B8090F01BA090F01BCB6
:101EF000080F01BE060F02B0030F02B2070F02B4B3
:101F0000040F02B6080F02B8070F02BA050F066ADF
:101F1000F60F02E3062AFCD70A0F056E065000BE34
:101F2000010F01B0020F01B2050F01BA010F01BC90
:101F3000030F01BE070F02B0050F02B4010F02B676
:101F4000020F02B8050F02BA010F02BC030F02BE56
:101F5000060F076AF60F02E3072AFCD70A0F066E80
:101F6000075001B4010F01B6020F01B8040F01BA06
:101F7000080F01BC060F01BE020F02B0050F02B22E
:101F8000010F02B4020F02B6040F02B8080F02BA22
:101F9000070F02BC040F02BE080F086AF60F02E327
:101FA000082AFCD70A0F076E085001BC010F01BEBA
:101FB000030F02B0060F02B2030F02B4060F02B6FF
:101FC000020F02B8040F02BA090F02BC090F02BEC9
:101FD000080F096AF60F02E3092AFCD70A0F086EF8
:101FE000095002B2010F02B4020F02B6050F02BC83
:101FF000010F02BE030F0A6AF60F02E30A2AFCD79A
:102000000A0F096E0A5002B8010F02BA020F02BC91
:10201000040F02BE080F0B6AF60F02E30B2AFCD76F
:102020000A0F0A6E0B500E6A0EE10A5010E10950B9
:1020300012E1085014E1075016E1065018E105506E
:102040001AE104501CD00E2A300FEE6E0A500E2AF0
:10205000300FEE6E09500E2A300FEE6E08500E2A29
:10206000300FEE6E07500E2A300FEE6E06500E2A1D
:10207000300FEE6E05500E2A300FEE6E04500E2A11
:10208000300FEE6E0E50E4CF0EF0E4CF0DF0E4CF43
:102090000CF0E4CF0BF0E4CF0AF0E4CF09F0E4CF8A
:1020A00008F0E4CF07F0E4CF06F0E4CF05F0E4CF8A
:1020B00004F0E4CF03F0E4CF02F0E4CF01F0E4CF8A
:1020C00000F0120000C0E5FF01C0E5FF02C0E5FF1F
:1020D00003C0E5FFD0EC28F0006E010A01E13DD01D
:1020E0000050020A01E13ED00050030A01E11CD178
:1020F0000050040A01E13BD00050060A01E13CD047
:1021000000500A0A01E166D000500B0A01E16BD0D1
:1021100000500C0A01E170D00050140A01E175D0A2
:102120000050150A01E17AD00050640A01E17FD025
:102130000050650A01E190D00050660A01E1A1D08B
:102140000050670A01E1B2D00050680A01E1C3D033
:102150000050690A01E1D4D0E7D0D0EC28F00F019B
:10216000016FE2D0D0EC28F00F01006FDDD0D0EC91
:1021700028F00101A46FD8D0D0EC28F00101B36F92
:10218000B3A102D0898601D089960101B3A302D000
:10219000898801D089980101B3A502D0898E01D028
:1021A000899E0101B3A702D08B8001D08B900101E1
:1021B000B3A902D08B8201D08B920101B3AB02D0C4
:1021C0008A8601D08A960101B3AD02D08A8AACD04A
:1021D0008A9AAAD0D0EC28F00101B36FFF0BFF0858
:1021E0000101656FA1D0D0EC28F00101B36FFF0BA6
:1021F000FF0801016A6F98D0D0EC28F00101B36F9D
:10220000FF0BFF0801016F6F8FD0D0EC28F00101A8
:10221000AD6F30EC2BF0F0EC2CF086D0D0EC28F049
:102220000101B16FF4EC2BF0F0EC2CF07DD0D0EC90
:1022300028F0036E026AD0EC28F0016A02260150F1
:1022400003220350E56E0250E56E000EE56ABDEC18
:102250001FF0030EE12668D0D0EC28F0036E026A6E
:10226000D0EC28F0016A0226015003220350E56EEB
:102270000250E56E010EE56EBDEC1FF0030EE12687
:1022800053D0D0EC28F0036E026AD0EC28F0016A3B
:102290000226015003220350E56E0250E56E020E45
:1022A000E56EBDEC1FF0030EE1263ED0D0EC28F029
:1022B000036E026AD0EC28F0016A02260150032264
:1022C0000350E56E0250E56E030EE56EBDEC1FF0A7
:1022D000030EE12629D0D0EC28F0036E026AD0EC80
:1022E00028F0016A0226015003220350E56E0250D5
:1022F000E56E040EE56EBDEC1FF0030EE12614D072
:10230000D0EC28F0036E026AD0EC28F0016A0226B5
:10231000015003220350E56E0250E56E050EE56E96
:10232000BDEC1FF0030EE126E4CF03F0E4CF02F092
:10233000E4CF01F0E4CF00F0120000C0E5FF01C0DF
:10234000E5FF02C0E5FF03C0E5FF04C0E5FF05C0EF
:10235000E5FF06C0E5FF07C0E5FF08C0E5FF09C0CF
:10236000E5FFC2B2F4D00F010F51D8B4ADD00F01C8
:102370000E51020DF450016EF3CF00F0260E002630
:102380000F0E012200C0E9FF01C0EAFFEECF02F00C
:10239000EFCF03F003340330056E0230046E0534D2
:1023A000053204320534053204320450025C046EF6
:1023B00005500358056EC3CF06F0076A0650042681
:1023C00007500522C4CF06F00650096E086A08506F
:1023D00004260950052200C0E9FF01C0EAFF04C03D
:1023E000EEFF05C0EFFF0F010B51010A01E06AD0BB
:1023F0000F010E51020DF450016EF3CF00F0260EC6
:102400000024046E0F0E0120056E04C0E9FF05C014
:10241000EAFFEECF02F0EFCF03F0100E0026010E20
:10242000012200C0E9FF01C0EAFFEECF04F0EFCFC8
:1024300005F09C0E0426D8A005060350800FF36E0D
:102440000550800FF35C02E10450025C0EE2025082
:10245000640F046E000E0320056E00C0E9FF01C08A
:10246000EAFF04C0EEFF05C0EFFF0F010E51020DA1
:10247000F450016EF3CF00F0200E0026010E012271
:1024800000C0E9FF01C0EAFFEECF04F0EFCF05F096
:10249000640E0426D8B0052A0550800FF36E035051
:1024A000800FF35C02E10250045C0CE29C0E0226F9
:1024B000D8A0030600C0E9FF01C0EAFF02C0EEFF9A
:1024C00003C0EFFF0F010F6B0F010E2B080E0E5D07
:1024D00001E30E6B0F010E39E8441F0B006E016A19
:1024E000C40E0026010E012200C0E9FF01C0EAFF70
:1024F000EFCF00F0070E0E15016E010E026E036A9B
:10250000015006E0E86CD89002360336010FFCE378
:10251000046A00500216045003160250031017E01C
:102520004F0E0F010E25006E016A010E012200C040
:10253000E9FF01C0EAFFEFCF00F00044E844FC0BE4
:10254000016E0128C26EC282010E0F010F6FE4CF2F
:1025500009F0E4CF08F0E4CF07F0E4CF06F0E4CFD1
:1025600005F0E4CF04F0E4CF03F0E4CF02F0E4CFD1
:1025700001F0E4CF00F01200D9CFE5FFE1CFD9FFA1
:1025800000C0E5FF01C0E5FF02C0E5FF03C0E5FFB5
:1025900004C0E5FF05C0E5FF06C0E5FF07C0E5FF95
:1025A00008C0E5FF09C0E5FF0AC0E5FF0BC0E5FF75
:1025B000020EDBCF00F0030EDBCF01F0040EDBCF09
:1025C00002F0050EDBCF03F0060EDBCF04F0070EA2
:1025D000DBCF05F0080EDBCF06F0090EDBCF07F0EE
:1025E00006C008F0060608500EE006500424086EE7
:1025F000E86A06BEE8680520096E08C0E9FF09C060
:10260000EAFFEF6AEDD7005001018C6F01508D6F2A
:1026100002508E6F03508F6F8CC100F08DC101F09E
:102620008EC102F08FC103F0066A086A096A800E43
:1026300003140A6E065007E1085005E1095003E152
:102640000A50800A01E012D0039E005001018C6FF5
:1026500001508D6F02508E6F03508F6F04C0E9FFE1
:1026600005C0EAFF2D0EEF6E044A052A01018E35E2
:102670008F357E08006E8C51016E8D51026E7F0E7B
:102680008E15036E066A038E086A096A0A6A0B6A67
:10269000005019E0D88000AED8900EE3085008260C
:1026A00009360A360B3603BE088001500126023671
:1026B00003360636002AECD7D890063203320232AF
:1026C00001320006E5D7085009100A100B1012E07D
:1026D0000550E56E0450E56E0B50E56E0A50E56E50
:1026E0000950E56E0850E56E7BEC28F0006E060E92
:1026F000E12608D004C0E9FF05C0EAFF300EEF6E06
:10270000010E006E00500426E86A00BEE86805224B
:10271000075028E004C0E9FF05C0EAFF2E0EEF6E67
:10272000002A044A052A07501808E56E0550E56E90
:102730000450E56E0650E56E0350E56E0250E56EFE
:102740000150E56E8BEC27F0016E070EE12601507B
:10275000002607500426E86A052204C0E9FF05C0E8
:10276000EAFFEF6A0050E4CF0BF0E4CF0AF0E4CFC9
:1027700009F0E4CF08F0E4CF07F0E4CF06F0E4CFAF
:1027800005F0E4CF04F0E4CF03F0E4CF02F0E4CFAF
:1027900001F0E4CF00F0E4CFD9FF1200D9CFE5FF7C
:1027A000E1CFD9FF00C0E5FF01C0E5FF02C0E5FFB2
:1027B00003C0E5FF04C0E5FF05C0E5FF06C0E5FF77
:1027C00007C0E5FF020EDBCF00F0030EDBCF01F008
:1027D000040EDBCF02F0050EDBCF03F0060EDBCFDD
:1027E00004F0070EDBCF05F0080EDBCF06F0090E74
:1027F000DBCF07F000500101786F0150796F025074
:102800007A6F03507B6F045001017C6F05507D6F20
:1028100006507E6F07507F6F0101785101017E03E2
:10282000F4CF01F0F3CF00F000500101826F0150AE
:10283000836F0101785101017C03F4CF01F0F3CFE4
:1028400000F000500101806F0150816F01017B5148
:1028500001017C03F3CF00F00101835100260050F9
:10286000836F01017A5101017D03F3CF00F0010173
:10287000835100260050836F01017A5101017C03CE
:10288000F4CF01F0F3CF00F0010182510026835113
:1028900001220050826F0150836F010179510101C3
:1028A0007D03F4CF01F0F3CF00F001018251002647
:1028B000835101220050826F0150836F01017951D1
:1028C00001017E03F3CF00F000500101876F010189
:1028D000795101017C03F4CF01F0F3CF00F00050F7
:1028E0000101856F0150866F0101785101017F035D
:1028F000F3CF00F0005001018B6F0101785101010D
:102900007D03F4CF01F0F3CF00F000500101896F97
:1029100001508A6F0101846B0101886B01018451B0
:1029200001018025006E0101855101018121016EA7
:102930000101865101018221026E010187510101CD
:102940008321036E0050806F0150816F0250826FAF
:102950000350836F0101885101018025006E010140
:10296000895101018121016E01018A5101018221F8
:10297000026E01018B5101018321036E03C0E9FF47
:1029800002C0F4FF01C0F3FF0050E4CF07F0E4CF32
:1029900006F0E4CF05F0E4CF04F0E4CF03F0E4CF99
:1029A00002F0E4CF01F0E4CF00F0E4CFD9FF120051
:1029B00000C0E5FF01C0E5FF0F010851D8B4F5D014
:1029C0009DA81DD09EA81BD00101BD510101BA19BF
:1029D00005E1B9EC2CF00101BA6BE7D0A40E0101BE
:1029E000BD25006E016A0A0E012200C0E9FF01C088
:1029F000EAFFEFCFB6F1BD2BB6C1ADFFD6D09EAA90
:102A0000D4D0ABA205D00101BB81B9EC2CF0CDD064
:102A1000ABA405D00101BB83B9EC2CF0C6D0ABA0B0
:102A20003ED0AECFB6F1800E0F0109110101B619EB
:102A300004E10101BB89AB96B8D00101B65104E0B5
:102A4000B6510F01091927E10101BB99AB960101AC
:102A5000B65103E00101BB9702D00101BB87B6C1AB
:102A6000BFF1B8C1C0F10101B8050101C16F600E2D
:102A70000101C025006E016A000E012200C0E9FFBD
:102A800001C0EAFFB6C1EFFFC02BC051800A02E1CE
:102A90000101C06B8AD00101BB99AB8686D0AECF55
:102AA000B6F10101BBA919D0800E0F010911010176
:102AB000B61911E1899C9D9AAB980101BA5104E1C4
:102AC000AD6AB9EC2CF007D0A4CAADFF010E01012C
:102AD000BD6F9D886AD0AB8668D00101B6510101F7
:102AE000BF270101C0510101C1191BE10101BF5103
:102AF0000CE1C0C1B8F10101BBB712D0899C9D9A0D
:102B0000AB98AD6AB9EC2CF00BD00101BB85BBB71B
:102B100007D0899C9D9AAB98010EAD6EB9EC2CF054
:102B200044D00101C0510101B91908E10101B951B5
:102B30000101B81903E0B9EC2CF037D0B8C100F0AE
:102B4000016A004A012AE56A800EE56E0150E56ED1
:102B50000050E56EA4EC20F0006E040EE12600505B
:102B60000101B76F0101C0190CE11F0E0101B6157B
:102B70000101C16FC12BC12B0101B8510101C12756
:102B8000C19FC0C100F00101C02B016A600E002688
:102B9000000E012200C0E9FF01C0EAFFB6C1EFFF4D
:102BA000C051800A02E10101C06BE4CF01F0E4CF23
:102BB00000F012002DEC2CF0EEEC27F0270EE56E65
:102BC000E56A080EE56E4DEC28F0030EE12600ECF8
:102BD0001BF0010EE56E000EE56A0FEC23F0E652E5
:102BE000E652E56A010EE56E0FEC23F0E652E6527E
:102BF000020EE56EE56E0FEC23F0E652E6520E0E85
:102C0000E56E030EE56E0FEC23F0E652E6520B0E76
:102C1000E56E040EE56E0FEC23F0E652E652310E3F
:102C2000E56E550EE56E270EE56E800EE56E010E23
:102C3000E56E570EE56E43EC1FF0060EE126E568E3
:102C4000E56A2E0EE56E800EE56E010EE56E5C0EF9
:102C5000E56E43EC1FF0060EE126E56AE568200EFE
:102C6000E56E800EE56E010EE56E610EE56E43ECDD
:102C70001FF0060EE126E56AE568210EE56E800E7E
:102C8000E56E010EE56E660EE56E43EC1FF0060E76
:102C9000E126E56AE568220EE56E800EE56E010E1E
:102CA000E56E6B0EE56E43EC1FF0060EE12600CFDD
:102CB000B2F1A6EC28F0006EF3CF01F0F4CF02F0F1
:102CC000E9CF03F0FAEC2CF030EC2BF0F4EC2BF025
:102CD0000101A46B0101AD51010A06E16FEC1AF08C
:102CE00084EC18F0B6EC17F06FEC1AF09DEC11F0D4
:102CF000B6EC17F00101AD51010A06E16FEC1AF0D4
:102D000084EC18F0B6EC17F06FEC1AF015EC0CF040
:102D1000B6EC17F0A6EC28F0046EF3CF05F0F4CF74
:102D200006F0E9CF07F00050045E0150055A02504A
:102D3000065A0350075A079E000E075C08E1000E72
:102D4000065C05E1130E055C02E1890E045CD8A067
:102D5000C1D7A6EC28F0006EF3CF01F0F4CF02F05B
:102D6000E9CF03F0A1EC0DF0070EE56EC1EC07F022
:102D7000E652B2C104F00101B2070450D8A4AAD7A8
:102D800000CFB2F10F01012B046A80B6042A01CFF3
:102D900005F00450E56EE56A0550E56E000EE56E3F
:102DA000590EE56ECE0EE56EB2EC25F0060EE1266C
:102DB00091D71200D9CFE5FFE1CFD9FF00C0E5FFE1
:102DC00001C0E5FF02C0E5FF03C0E5FF04C0E5FF69
:102DD00005C0E5FF06C0E5FF07C0E5FF08C0E5FF49
:102DE00009C0E5FF0AC0E5FF0BC0E5FF0CC0E5FF29
:102DF0000DC0E5FF0EC0E5FF0FC0E5FF020EDBCF03
:102E000000F0030EDBCF01F0040EDBCF02F0050E65
:102E1000DBCF03F0060EDBCF04F0070EDBCF05F0AF
:102E2000080EDBCF06F0200E076E086A06C009F018
:102E30000A6A0B6A0C6AE56AE56AE56A0950E56E9A
:102E40000350E56E0250E56E0150E56E0050E56EF0
:102E5000DCEC19F00D6E080EE126300E0D263A0E50
:102E60000D5C05E30D500E6E270E0E240D6EFF0E49
:102E700007260822E00E07240E6E000E08200F6EB3
:102E80000EC0E9FF0FC0EAFF0DC0EFFF0C50E56E6A
:102E90000B50E56E0A50E56E0950E56E0350E56E85
:102EA0000250E56E0150E56E0050E56EACEC1CF092
:102EB000006EF3CF01F0F4CF02F0E9CF03F0080E7B
:102EC000E1260050011002100310D8A4AFD707C0AC
:102ED00000F008C001F004C002F005C003F000C01B
:102EE00004F001C005F0004A012AE00E0426000E9D
:102EF000052204C0E9FF05C0EAFFEFCF04F002C0DD
:102F0000E9FF03C0EAFF04C0EFFF024A032A000EF4
:102F1000015C02E1200E005CE2E302C0E9FF03C0B5
:102F2000EAFF000EEF6AE4CF0FF0E4CF0EF0E4CF3B
:102F30000DF0E4CF0CF0E4CF0BF0E4CF0AF0E4CFD7
:102F400009F0E4CF08F0E4CF07F0E4CF06F0E4CFD7
:102F500005F0E4CF04F0E4CF03F0E4CF02F0E4CFD7
:102F600001F0E4CF00F0E4CFD9FF120000C0E5FF8C
:102F700001C0E5FF80A603D00101AF8102D00101AD
:102F8000AF9180A803D00101AF8302D00101AF93BC
:102F900080AE03D00101AF8502D00101AF9582A0C0
:102FA00003D00101AF8702D00101AF97006A010190
:102FB000AFB1002A016A0101B0B1012A0050011825
:102FC0001CE0006A0101AFB3002A016A0101B0B33D
:102FD000012A0050011811E1006A0101AFB1002A75
:102FE000016AAFB3012A0150001A005003E0010149
:102FF000A82B29D00101A80726D0006A0101AFB390
:10300000002A016A0101B0B3012A005001181BE037
:10301000006A0101AFB1002A016A0101B0B1012AC1
:103020000050011810E1006A0101AFB1002A016AE5
:10303000AFB3012A0150001A005003E10101A82B8F
:1030400002D00101A807006A0101AFB5002A016A98
:103050000101B0B5012A005001181CE0006A01010D
:10306000AFB7002A016A0101B0B7012A0050011868
:1030700011E1006A0101AFB5002A016AAFB7012A68
:103080000150001A005003E00101AA2B2FD00101CA
:10309000AA072CD0006A0101AFB5002A016A01011C
:1030A000B0B5012A0050011821E1006A0101AFB753
:1030B000002A016A0101B0B7012A0050011816E088
:1030C000006A0101AFB5002A0050D880E866D890A8
:1030D000006A0036016AAFB7012A0150001A005099
:1030E00003E00101AA2B02D00101AA070101AF519F
:1030F000FF0B0101B06FFF0B006E00C0ACF1E4CF1D
:1031000001F0E4CF00F0120000C0E5FF01C0E5FFD0
:1031100002C0E5FF03C0E5FF0F0121512211231179
:1031200024110AE1A6EC28F00F01216FF3CF22FF52
:10313000F4CF23FFE9CF24FFA6EC28F0006EF3CFF5
:1031400001F0F4CF02F0E9CF03F00F012151005E4E
:103150002251015A2351025A2451035A039E03500B
:10316000F00BD8A47FD00F011E510F011F190BE1E6
:10317000A6EC28F00F01216FF3CF22FFF4CF23FF3D
:10318000E9CF24FF6FD0000E0F011F25006E016AEA
:103190000A0E012200C0E9FF01C0EAFFEFCF00F0F4
:1031A00000500101C66F0F011F2B1F51800A02E161
:1031B0000F011F6B800E0F012015006E00500FE1F4
:1031C0000101C651FF0B016E800E015C08E3C65180
:1031D000FF0B016E810E01140F01206F43D00050D0
:1031E00002E08A9A01D08A8A0101C651FF0BE56E7E
:1031F0000F012051E56EBCEC29F0E652E6520F01BA
:1032000020AF1AD00101C651FF0BFC0B15E1A6EC53
:1032100028F0F3CF01F0F4CF02F0E9CF03F0F00F84
:103220000F01216F050E0120226F000E0220236F77
:10323000000E0320246F14D0A6EC28F0F3CF01F089
:10324000F4CF02F0E9CF03F0260F0F01216F000E3B
:103250000120226F000E0220236F000E0320246F36
:103260000F01209FE4CF03F0E4CF02F0E4CF01F0A0
:10327000E4CF00F01200800EE56E010EE56E200E28
:10328000E56EBAEC23F0030EE126800EE56E010E2A
:10329000E56E220EE56EBAEC23F0030EE126800EF9
:1032A000E56E010EE56E240EE56EBAEC23F0030E1A
:1032B000E126800EE56E010EE56E260EE56EBAEC97
:1032C00023F0030EE126800EE56E010EE56E280E5A
:1032D000E56EBAEC23F0030EE126800EE56E010EDA
:1032E000E56E2A0EE56EBAEC23F0030EE126800EA1
:1032F000E56E010EE56E2C0EE56EBAEC23F0030EC2
:10330000E126800EE56E010EE56E2E0EE56EBAEC3E
:1033100023F0030EE126800EE56E010EE56E100E21
:10332000E56EBAEC23F0030EE126800EE56E010E89
:10333000E56E120EE56EBAEC23F0030EE126800E68
:10334000E56E010EE56E140EE56EBAEC23F0030E89
:10335000E126800EE56E010EE56E160EE56EBAEC06
:1033600023F0030EE126800EE56E010EE56E180EC9
:10337000E56EBAEC23F0030EE126800EE56E010E39
:10338000E56E1A0EE56EBAEC23F0030EE126800E10
:10339000E56E010EE56E1C0EE56EBAEC23F0030E31
:1033A000E126800EE56E010EE56E1E0EE56EBAECAE
:1033B00023F0030EE1261200D9CFE5FFE1CFD9FFBC
:1033C00000C0E5FF01C0E5FF02C0E5FF03C0E5FF67
:1033D00004C0E5FF05C0E5FF06C0E5FF07C0E5FF47
:1033E00008C0E5FF09C0E5FF0AC0E5FF020EDBCF1C
:1033F00000F0030EDBCF01F0040EDBCF02F0050E70
:10340000DBCF03F0060EDBCF04F0070EDBCF05F0B9
:10341000080EDBCF06F0090EDBCF07F0086A096A59
:103420000750800BE8440A6E0A501BE10450042642
:103430000536063607360750035C08E10650025C85
:1034400005E10550015C02E10450005C06E2D89001
:10345000073206320532043204D0092A09C008F0C6
:10346000DFD70750035C08E10650025C05E1055018
:10347000015C02E10450005C08E30450005E05506A
:10348000015A0650025A0750035AD89007320632A2
:103490000532043208C009F008060950E2E103C011
:1034A000E9FF02C0F4FF01C0F3FF0050E4CF0AF0CF
:1034B000E4CF09F0E4CF08F0E4CF07F0E4CF06F062
:1034C000E4CF05F0E4CF04F0E4CF03F0E4CF02F062
:1034D000E4CF01F0E4CF00F0E4CFD9FF120000C048
:1034E000E5FF01C0E5FF02C0E5FF03C0E5FF04C042
:1034F000E5FF0101B9510101B81901E163D0B9C17A
:1035000000F0002A009E600E0024016E026A000E88
:10351000022201C0E9FF02C0EAFFEFCFC3F11F0E94
:103520000101C317B9C1C2F1C3510101C227C22BA6
:10353000C22BC29FD0EC28F0016E015003E1016A5A
:10354000012A01D0016AD0EC28F00101C36F800E7E
:10355000C315026E1F0EC315036E03C004F003C033
:10356000C3F1045003E1B8C1B9F13FD0015021E0EB
:1035700002501CE0D0EC28F0006E0101C30700509F
:10358000420A03E15BEC2DF01BD000504E0A03E130
:1035900030EC25F015D00050460A03E1D0EC2CF0B9
:1035A0000FD00050490A0CE1FF000AD05AEC2DF070
:1035B00007D0025003E07FEC21F002D062EC10F063
:1035C000C2C1B9F10F0105510F01061906E0010151
:1035D000BA5103E138EC1DF008D089BC06D00101D6
:1035E000BA5103E1ACB2B9EC2CF0E4CF04F0E4CF73
:1035F00003F0E4CF02F0E4CF01F0E4CF00F01200DA
:1036000000C0E5FF01C0E5FF02C0E5FF03C0E5FF24
:1036100004C0E5FF006AC40E0024016E026A010EB8
:10362000022201C0E9FF02C0EAFFEF6A002A010E90
:10363000005CF1E3006A016A026A260E0124036E4F
:103640000F0E0220046E03C0E9FF04C0EAFFEE6A19
:10365000EF6AEA0E0124036E0A0E0220046E03C014
:10366000E9FF04C0EAFFEE6AEF6A000E0124036E70
:10367000010E0220046E03C0E9FF04C0EAFFEE6AF7
:10368000EF6A100E0124036E010E0220046E03C0C7
:10369000E9FF04C0EAFFEE6AEF6A200E0124036E20
:1036A000010E0220046E03C0E9FF04C0EAFFEE68C9
:1036B0007F0EEF6E020E0126D8B0022A002A080EF5
:1036C000005CD8A0BAD7AF0EC06EC16A010EC26E40
:1036D000C282E4CF04F0E4CF03F0E4CF02F0E4CF01
:1036E00001F0E4CF00F012004320412025642025A2
:1036F000640A0000432061736D2025642025642046
:1037000025642025642025640A00432061734D2030
:1037100025642025642025642025642025640A0072
:1037200000C0E5FF01C0E5FF02C0E5FF03C0E5FF03
:1037300004C0E5FF05C0E5FF06C0E5FF010E006E11
:103740000101A36B0101A26B016A0150800F7A0F86
:10375000D8B066D00150E56E48EC29F0026EF3CF88
:1037600003F0E65202340334046E0350800F800FDE
:1037700002E1010E025C02E3042A05D0D88003AE08
:10378000D890D8B00406D88004AED890026A023629
:10379000025004E0041C036E032A02D004C003F0AC
:1037A000FA0E0124056E066A01BE06680A0E06229C
:1037B00005C0E9FF06C0EAFFEFCF05F0052A035078
:1037C000800FF36E0550800FF35C18E2056A045019
:1037D000800F7F0F09E30101A351FF0B036E00501F
:1037E00003120350A36F0AD0025008E00101A25156
:1037F000FF0B026E005002120250A26FFA0E01245B
:10380000026E036A01BE03680A0E032202C0E9FFCA
:1038100003C0EAFF05C0EFFF012AD890003695D714
:10382000E4CF06F0E4CF05F0E4CF04F0E4CF03F0FA
:10383000E4CF02F0E4CF01F0E4CF00F0120000C0CA
:10384000E5FF01C0E5FF03C0E5FF04C0E5FF05C0DB
:10385000E5FF06C0E5FF07C0E5FF08C0E5FF09C0BA
:10386000E5FF0AC0E5FF0BC0E5FF99C100F09AC172
:1038700001F00101993F01D09A2B0050E56E82ECD6
:103880002CF0E652076E046A056A066A99C100F0D8
:103890009AC101F00101993F01D09A2B0050E56EC9
:1038A00082EC2CF0E6520B6A0A6E086A0850041289
:1038B00005120A5006120B50071299C100F09AC166
:1038C00001F00101993F01D09A2B0050E56E82EC86
:1038D0002CF0E652036E006A03C001F0E86A03BEF2
:1038E000FF0E086E096E00500412015005120850B8
:1038F00006120950071299C100F09AC101F00101A6
:10390000993F01D09A2B0050E56E82EC2CF0E652E4
:10391000016A0412015005120612071207C0E9FFDE
:1039200006C0F4FF05C0F3FF0450E4CF0BF0E4CF72
:103930000AF0E4CF09F0E4CF08F0E4CF07F0E4CFD9
:1039400006F0E4CF05F0E4CF04F0E4CF03F0E4CFD9
:1039500001F0E4CF00F01200D9CFE5FFE1CFD9FFAD
:1039600000C0E5FF01C0E5FF02C0E5FF03C0E5FFC1
:1039700004C0E5FF05C0E5FF06C0E5FF07C0E5FFA1
:1039800008C0E5FF09C0E5FF0AC0E5FF0BC0E5FF81
:103990000CC0E5FF0DC0E5FF020EDBCF00F0030E0B
:1039A000DBCF01F0040EDBCF02F0050EDBCF03F01E
:1039B000060EDBCF04F0070EDBCF05F0080EDBCFE1
:1039C00006F0090EDBCF07F0086A096A0A6A0B6A7B
:1039D000200E0C6E0350800BE8440D6E0050002644
:1039E0000136023603360850082609360A360B36E9
:1039F0000D50D8A4088007500B5C08E106500A5C03
:103A000005E10550095C02E10450085C09E304503B
:103A1000085E0550095A06500A5A07500B5A008092
:103A20000C2ED8D703C0E9FF02C0F4FF01C0F3FF9A
:103A30000050E4CF0DF0E4CF0CF0E4CF0BF0E4CF76
:103A40000AF0E4CF09F0E4CF08F0E4CF07F0E4CFC8
:103A500006F0E4CF05F0E4CF04F0E4CF03F0E4CFC8
:103A600002F0E4CF01F0E4CF00F0E4CFD9FF120080
:103A700000C0E5FF01C0E5FF02C0E5FF03C0E5FFB0
:103A8000ACA276D042EC2AF0006E005005E10F01A6
:103A9000066B0F01056B6CD006CF01F000500126BC
:103AA00042EC2AF0026E00060250230A1FE1010ECA
:103AB000005CD8A05BD042EC2AF0026E690A03E1F8
:103AC000EEEC27F053D00250720A03E1B9EC2CF06F
:103AD0004DD00250730A01E049D0898CAB869D8A93
:103AE0009D98AE50AE50AB98AB8840D00250430A80
:103AF00005E00250420A01E039D001D0008E00C03A
:103B0000BCF100500A01A46F010E0101BD6F0F014D
:103B10000651011814E042EC2AF0026E0101BC27A4
:103B2000A40E0101BD25006E036A0A0E032200C027
:103B3000E9FF03C0EAFF02C0EFFFBD2BE8D7A40EE8
:103B40000101BD25006E026A0A0E02220101BC1DA0
:103B5000036E032A00C0E9FF02C0EAFF03C0EFFFC3
:103B60000101BD2BBDC1BAF10101B46B01C006FF5B
:103B7000E4CF03F0E4CF02F0E4CF01F0E4CF00F0B3
:103B80001200D9CFE5FFE1CFD9FF00C0E5FF01C0AA
:103B9000E5FF02C0E5FF03C0E5FF04C0E5FF05C087
:103BA000E5FF06C0E5FF07C0E5FF020EDBCF00F032
:103BB000030EDBCF01F0040EDBCF02F0050EDBCFEE
:103BC00003F002C006F00650046E800A33E100C024
:103BD000E9FF01C0F3FF02509CEC2AF0056EF3CF21
:103BE00006F0F4CF07F003C0E5FF05C0E9FF06C00B
:103BF000F3FF0750DBEC2CF000C0E9FF01C0F3FF3E
:103C000002509CEC2AF0056EF3CF06F0F4CF07F0DB
:103C1000052A02E3064A072A05C0E5FF06C0F4FFAD
:103C200007C0F6FF00C0E9FF01C0F3FF025073ECCC
:103C30002CF01DD004AA1BD0047A045004E10350D8
:103C400035EC2DF014D00450010A04E1035048EC87
:103C50002DF00DD004500F0A04E10350BDEC27F005
:103C600006D004500E0A03E1035045EC2DF0E4CFDA
:103C700007F0E4CF06F0E4CF05F0E4CF04F0E4CFA2
:103C800003F0E4CF02F0E4CF01F0E4CF00F0E4CFA2
:103C9000D9FF1200D9CFE5FFE1CFD9FF00C0E5FF82
:103CA00001C0E5FF02C0E5FF03C0E5FF04C0E5FF7A
:103CB00005C0E5FF06C0E5FF020EDBCF00F0030EF6
:103CC000DBCF01F0040EDBCF02F0050EDBCF03F0FB
:103CD00000C0E9FF01C0F3FF025051EC2CF0046E6C
:103CE000E56AE56E1EEC28F0E652E652010E03147A
:103CF000056E066A055001E1062A0650E56EE9ECFC
:103D00002AF0E65206EC00F0010EE56E0450E56E76
:103D10001EEC28F0E652E652055016E00050010F66
:103D2000046E000E0120056E000E0220066E90EC5F
:103D30002CF0E56E04C0E9FF05C0F3FF0650DBEC94
:103D40002CF003B214EC2DF003A20FD0020E0026CB
:103D5000000E0122022290EC2CF0E56E00C0E9FF7B
:103D600001C0F3FF0250DBEC2CF006EC00F0E4CFD6
:103D700006F0E4CF05F0E4CF04F0E4CF03F0E4CFA5
:103D800002F0E4CF01F0E4CF00F0E4CFD9FF12005D
:103D9000D9CFE5FFE1CFD9FF00C0E5FF01C0E5FFC6
:103DA00002C0E5FF03C0E5FF04C0E5FF05C0E5FF75
:103DB00006C0E5FF07C0E5FF020EDBCF00F0030EF3
:103DC000DBCF01F0040EDBCF02F0050EDBCF03F0FA
:103DD00006CF07FF0F0105510F01075F070703C05B
:103DE00004F0056A030E0426D8B0052A07CF06F0B2
:103DF000076A0750800FF36E0550800FF35C02E1F5
:103E00000450065C02E2E8682BD0020E035C02E27A
:103E1000E86A26D003060350E56E6EEC26F0E65203
:103E2000046A0350045C14E204500024056EE86A3E
:103E30000120066EE86A022005C0E9FF06C0F3FF14
:103E400051EC2CF0042AE56E6EEC26F0E652E9D730
:103E500006CF07FF0F0105510F01075F0707E86A4B
:103E6000E4CF07F0E4CF06F0E4CF05F0E4CF04F0B0
:103E7000E4CF03F0E4CF02F0E4CF01F0E4CF00F0B0
:103E8000E4CFD9FF1200D9CFE5FFE1CFD9FF00C0C1
:103E9000E5FF01C0E5FF02C0E5FF03C0E5FF04C088
:103EA000E5FF05C0E5FF020EDBCF00F0030EDBCF20
:103EB00001F0040EDBCF02F0050EDBCF03F0060E9F
:103EC000DBCF04F0070EDBCF05F0035009E003C0A1
:103ED000E5FF00C0E9FF01C0F3FF0250DBEC2CF06E
:103EE000E56A0350E56E1EEC28F0E652E652060E37
:103EF000E56EE9EC2AF0E6520450E56EE9EC2AF0B2
:103F0000E6520550E56EE9EC2AF0E65206EC00F0C8
:103F10000050030F036E000E0120046E000E0220FD
:103F2000056E040E0026000E01220222E56800C084
:103F3000E9FF01C0F3FF0250DBEC2CF000C0E9FF09
:103F400001C0F3FF025051EC2CF0FF0BE56E03C0F3
:103F5000E9FF04C0F3FF0550DBEC2CF0E4CF05F0E3
:103F6000E4CF04F0E4CF03F0E4CF02F0E4CF01F0BB
:103F7000E4CF00F0E4CFD9FF1200D9CFE5FFE1CFC5
:103F8000D9FF00C0E5FF01C0E5FF02C0E5FF03C0A7
:103F9000E5FF04C0E5FF05C0E5FF020EDBCF00F042
:103FA000030EDBCF01F0040EDBCF02F00050020D58
:103FB000F450036EF3CF00F0EA0E0024046E0A0EF4
:103FC0000320056E04C0E9FF05C0EAFF01C0EEFF53
:103FD00002C0EFFF000E0024046E010E0320056EE8
:103FE00004C0E9FF05C0EAFFEECF04F0EFCF05F013
:103FF0000150045C016E02500558026E300E00261E
:10400000010E032200C0E9FF03C0EAFF01C0EEFF7A
:1040100002C0EFFFD88002AED89004E3021E016C0C
:10402000D8B4022A0250800F800F02E1030E015C17
:1040300002E2016A026A0150021007E100C0E9FFD2
:1040400003C0EAFF000EEE6AEF6AE4CF05F0E4CFAA
:1040500004F0E4CF03F0E4CF02F0E4CF01F0E4CFCA
:1040600000F0E4CFD9FF1200D9CFE5FFE1CFD9FFAF
:1040700000C0E5FF01C0E5FF02C0E5FF03C0E5FFAA
:1040800004C0E5FF05C0E5FF020EDBCF00F0030E24
:10409000DBCF01F0040EDBCF02F0050EDBCF03F027
:1040A00000C0E9FF01C0F3FF025051EC2CF0E56ABB
:1040B000E56E1EEC28F0E652E652010E0314046E83
:1040C000056A045001E1052A052A052A0550E56E16
:1040D000E9EC2AF0E652045013E00050030F046E9E
:1040E000000E0120056E000E022004C0E9FF05C08D
:1040F000F3FF51EC2CF0FF0BE56EE9EC2AF0E652F1
:1041000003A211D0040E0026000E0122022200C0DC
:10411000E9FF01C0F3FF025051EC2CF0FF0BE56EFC
:10412000E9EC2AF0E65206EC00F0E4CF05F0E4CF2B
:1041300004F0E4CF03F0E4CF02F0E4CF01F0E4CFE9
:1041400000F0E4CFD9FF1200D9CFE5FFE1CFD9FFCE
:1041500000C0E5FF01C0E5FF02C0E5FF03C0E5FFC9
:1041600004C0E5FF05C0E5FF06C0E5FF020EDBCF9A
:1041700000F0030EDBCF01F0040EDBCF02F0050EE2
:10418000DBCF03F0D88001AED890046A0436045027
:1041900007E0011C066E001C056E054A062A04D0C5
:1041A00000C005F001C006F0D88003AED89007E348
:1041B000031C016E021C006E004A012A04D002C0DA
:1041C00000F003C001F00150E56E0050E56E0650AE
:1041D000E56E0550E56EB2EC22F0006EF3CF01F013
:1041E000040EE12604500AE0011C036E001C026E5E
:1041F000024A032A03C0F3FF025003D001C0F3FFB9
:104200000050E4CF06F0E4CF05F0E4CF04F0E4CFB3
:1042100003F0E4CF02F0E4CF01F0E4CF00F0E4CF0C
:10422000D9FF1200D9CFE5FFE1CFD9FF00C0E5FFEC
:1042300001C0E5FF02C0E5FF03C0E5FF04C0E5FFE4
:1042400005C0E5FF020EDBCF00F0030EDBCF01F06F
:10425000040EDBCF02F0050EDBCF03F099C104F0B2
:104260009AC105F00101993F01D09A2B0350E56EE8
:104270000450E56E21EC29F0E652E65299C104F0B3
:104280009AC105F00101993F01D09A2B0250056EA9
:10429000E56E0450E56E21EC29F0E652E65299C134
:1042A00004F09AC105F00101993F01D09A2B015009
:1042B000056EE56E0450E56E21EC29F0E652E652FB
:1042C00099C104F09AC105F00101993F01D09A2BE0
:1042D0000050E56E0450E56E21EC29F0E652E652FE
:1042E000E4CF05F0E4CF04F0E4CF03F0E4CF02F034
:1042F000E4CF01F0E4CF00F0E4CFD9FF120000C01A
:10430000E5FF01C0E5FF02C0E5FF3CEC2DF0006ECB
:10431000D0EC28F0016E4C0A13E10101AD51010A05
:1043200001E050D0010E026E0050025CD8B04AD0BD
:10433000D0EC28F0E56EE9EC24F0E652022AF4D73E
:104340000150450A23E1000EE56E590EE56EDA0EC6
:10435000E56EB2EC25F0030EE126010E026E005070
:10436000025C10E2D0EC28F0E56AE56E000EE56E26
:10437000590EE56EDC0EE56EB2EC25F0050EE12679
:10438000022AEDD70A0EBDEC27F01CD00150530ACB
:1043900019E1D0EC28F0006ED00E0024016E006A06
:1043A000015001E1002A0050D880E866D890006AE8
:1043B00000360050E56E56EC24F0E6520150D8B4B9
:1043C000F0EC2CF0E4CF02F0E4CF01F0E4CF00F009
:1043D0001200D9CFE5FFE1CFD9FF00C0E5FF01C052
:1043E000E5FF02C0E5FF03C0E5FF04C0E5FF05C02F
:1043F000E5FF06C0E5FF020EDBCF00F0030EDBCFCA
:1044000001F0040EDBCF02F00101C55119E11FECF0
:104410001CF0036EF3CF04F0F4CF05F0E9CF06F003
:1044200003C0E5FF04C0F4FF05C0F6FF06C0F7FFB8
:1044300000C0E9FF01C0F3FF025062EC2CF01ED077
:104440000101C551010A1AE100C0E9FF01C0F3FFF3
:10445000025022EC2AF0006EF3CF01F0F4CF02F00C
:10446000E9CF03F00350E56E0250E56E0150E56EB2
:104470000050E56E12EC21F0040EE126E4CF06F0C8
:10448000E4CF05F0E4CF04F0E4CF03F0E4CF02F092
:10449000E4CF01F0E4CF00F0E4CFD9FF1200D9CF90
:1044A000E5FFE1CFD9FF00C0E5FF01C0E5FF02C095
:1044B000E5FF03C0E5FF04C0E5FF05C0E5FF06C05A
:1044C000E5FF020EDBCF00F0030EDBCF01F0040EA0
:1044D000DBCF02F0050EDBCF03F0060EDBCF04F0DE
:1044E000070EDBCF05F0080EDBCF06F0D88003AE59
:1044F000D89015E306500A0A12E104C0E9FF05C08E
:10450000EAFF2D0EEF6E044A052A031E021E011E4D
:10451000006C05E1012A03E1022AD8B4032A0650FF
:10452000E56E0550E56E0450E56E0350E56E0250F1
:10453000E56E0150E56E0050E56EDAEC16F0070E00
:10454000E126E4CF06F0E4CF05F0E4CF04F0E4CFB9
:1045500003F0E4CF02F0E4CF01F0E4CF00F0E4CFC9
:10456000D9FF1200D9CFE5FFE1CFD9FF00C0E5FFA9
:1045700001C0E5FF02C0E5FF03C0E5FF04C0E5FFA1
:1045800005C0E5FF06C0E5FF020EDBCF00F0030E1D
:10459000DBCF01F0040EDBCF02F0050EDBCF03F022
:1045A000046A056A0350800BE844066E065011E168
:1045B0000250022603360350015C02E10250005C07
:1045C00004E2D8900332023204D0052A05C004F078
:1045D000E9D70350015C02E10250005C04E30250A1
:1045E000005E0350015AD8900332023204C005F035
:1045F00004060550EEE101C0F3FF0050E4CF06F0E1
:10460000E4CF05F0E4CF04F0E4CF03F0E4CF02F010
:10461000E4CF01F0E4CF00F0E4CFD9FF1200D9CF0E
:10462000E5FFE1CFD9FF00C0E5FF01C0E5FF02C013
:10463000E5FF03C0E5FF04C0E5FF05C0E5FF06C0D8
:10464000E5FF020EDBCF00F0030EDBCF01F00038F8
:10465000E8441F0B026E036AC40E0226010E0322F9
:1046600002C0E9FF03C0EAFFEFCF04F0070E001419
:10467000056E010E066E055005E0E86CD890063612
:10468000010FFDE30650041202C0E9FF03C0EAFF78
:1046900004C0EFFF026A4F0E0026010E022200C086
:1046A000E9FF02C0EAFF01C0EFFFE4CF06F0E4CF6C
:1046B00005F0E4CF04F0E4CF03F0E4CF02F0E4CF60
:1046C00001F0E4CF00F0E4CFD9FF1200D9CFE5FF2D
:1046D000E1CFD9FF00C0E5FF01C0E5FF02C0E5FF63
:1046E00003C0E5FF020EDBCF00F0030EDBCF01F0CD
:1046F000040EDBCF02F000C0E9FF01C0F3FF02505F
:1047000051EC2CF0036E035029E06CA610D003503E
:10471000E56EE9EC2AF0036EE652035002E0FD0E6E
:104720001ED007EC2CF06BAC14D0FE0E18D0A49E5B
:1047300000C0E9FF01C0F3FF025051EC2CF06F6E96
:104740006C88A4AEFED76DB404D06DB002D0FE0E5E
:1047500006D0002AD0E3014A022ACDD7E86AE4CF86
:1047600003F0E4CF02F0E4CF01F0E4CF00F0E4CFB7
:10477000D9FF1200D9CFE5FFE1CFD9FF00C0E5FF97
:1047800001C0E5FF02C0E5FF03C0E5FF04C0E5FF8F
:10479000020EDBCF00F0030EDBCF01F0040EDBCF07
:1047A00002F00101C55111E157EC27F0036EF3CF80
:1047B00004F003C0E5FF04C0F4FF00C0E9FF01C03E
:1047C000F3FF0250ACEC2CF016D00101C551010AE8
:1047D00012E100C0E9FF01C0F3FF0250A1EC2BF091
:1047E000006EF3CF01F00150E56E0050E56E31EC44
:1047F00026F0E652E652E4CF04F0E4CF03F0E4CF33
:1048000002F0E4CF01F0E4CF00F0E4CFD9FF1200D2
:10481000380EF66E5A0EF76E000EF86E0900F5505F
:10482000056E0900F550066E04E1056702D055EFEC
:1048300024F00900F550006E0900F550016E0900E2
:10484000F550026E09000900F550E96E0900F550B7
:10485000EA6E090009000900F550036E0900F550E1
:10486000046E09000900F6CF07F0F7CF08F0F8CF83
:1048700009F000C0F6FF01C0F7FF02C0F8FF0350C7
:1048800002E1045007E00900F550EE6E0306F8E27D
:104890000406F9D707C0F6FF08C0F7FF09C0F8FF04
:1048A000050601E2060614EF24F01200D9CFE5FF59
:1048B000E1CFD9FF00C0E5FF01C0E5FF02C0E5FF81
:1048C00003C0E5FF04C0E5FF05C0E5FF020EDBCF36
:1048D00000F00050010A24E1016A026A036A100E26
:1048E0000224046E010E0320056E04C0E9FF05C01A
:1048F000EAFFEE687F0EEF6E200E0224046E010EBA
:104900000320056E04C0E9FF05C0EAFFEE6AEF6A06
:10491000020E0226D8B0032A012A080E015CDFE34A
:1049200000C00BFFE4CF05F0E4CF04F0E4CF03F0C8
:10493000E4CF02F0E4CF01F0E4CF00F0E4CFD9FF00
:104940001200D9CFE5FFE1CFD9FF00C0E5FF01C0DC
:10495000E5FF02C0E5FF03C0E5FF04C0E5FF020E6E
:10496000DBCF00F0030EDBCF01F0040EDBCF02F053
:10497000036A02C004F0020604501DE090EC2CF023
:10498000046E00C0E9FF01C0EAFF04C0EFFF004A67
:10499000012A03C004F06BA6ECD7A4AC02D0E868EF
:1049A0000BD0042A04C003F00250F5E014EC2DF003
:1049B0006BB8FED7F0D70350E4CF04F0E4CF03F098
:1049C000E4CF02F0E4CF01F0E4CF00F0E4CFD9FF70
:1049D0001200D9CFE5FFE1CFD9FF00C0E5FF01C04C
:1049E000E5FF02C0E5FF03C0E5FF020EDBCF00F0EC
:1049F0000F011E29016E800A01E1016A01500F01B9
:104A00001F190BE1000EE56E4A0EE56E4E0EE56EC7
:104A1000B2EC25F0030EE1260FD0000E0F011E258B
:104A2000026E036A0A0E032202C0E9FF03C0EAFF16
:104A300000C0EFFF01C01EFFE4CF03F0E4CF02F09F
:104A4000E4CF01F0E4CF00F0E4CFD9FF120043211E
:104A50004C4344206F7665726C6F616420210A00BC
:104A600000C0E5FF01C0E5FF02C0E5FFD0EC28F083
:104A7000006ED0EC28F0016E0050026ED00E0224C1
:104A8000006E0A0E005C05E30050026EF90E02246F
:104A9000006E0150026ED00E0224016E0A0E015CFF
:104AA00005E30150026EF90E0224016E080E005C4F
:104AB00012E2100E015CD8B00ED00038F00B0124C9
:104AC000006EE4EC26F0016E015005E10050E56E49
:104AD000D1EC2AF0E652E4CF02F0E4CF01F0E4CFCB
:104AE00000F01200D9CFE5FFE1CFD9FF00C0E5FF0C
:104AF00001C0E5FF02C0E5FF03C0E5FF04C0E5FF1C
:104B0000020EDBCF00F00038E8441F0B016E026A92
:104B1000C40E0126010E022201C0E9FF02C0EAFF15
:104B2000EFCF03F0070E0016010E046E005005E0F3
:104B3000E86CD8900436010FFDE3041C031601C095
:104B4000E9FF02C0EAFF03C0EFFFE4CF04F0E4CFC7
:104B500003F0E4CF02F0E4CF01F0E4CF00F0E4CFC3
:104B6000D9FF1200D9CFE5FFE1CFD9FF00C0E5FFA3
:104B700001C0E5FF02C0E5FF020ED924006E000E61
:104B8000DA20016E800E026E030E0026000E012256
:104B900002220250E56E0150E56E0050E56E040EF3
:104BA000DBCFE5FF030EDBCFE5FF020EDBCFE5FF3A
:104BB00001019251E56E9151E56E9051E56E0EEC5A
:104BC00000F0006EF3CF01F0090EE12601C0F3FF03
:104BD0000050E4CF02F0E4CF01F0E4CF00F0E4CFE6
:104BE000D9FF1200D9CFE5FFE1CFD9FF00C0E5FF23
:104BF00001C0E5FF02C0E5FF03C0E5FF020EDBCF09
:104C000000F0030EDBCF01F0040EDBCF02F0010158
:104C1000C5510DE18BEC2BF0036E03C0E5FF00C026
:104C2000E9FF01C0F3FF0250DBEC2CF00FD00101D3
:104C3000C551010A0BE100C0E9FF01C0F3FF0250BA
:104C400051EC2CF0E56E96EC29F0E652E4CF03F03F
:104C5000E4CF02F0E4CF01F0E4CF00F0E4CFD9FFDD
:104C60001200D9CFE5FFE1CFD9FF00C0E5FF01C0B9
:104C7000E5FF02C0E5FF03C0E5FF020EDBCF00F059
:104C8000030EDBCF01F099C102F09AC103F00101DC
:104C9000993F01D09A2B0150E56E0250E56E21EC50
:104CA00029F0E652E65299C102F09AC103F00101DF
:104CB000993F01D09A2B0050E56E0250E56E21EC31
:104CC00029F0E652E652E4CF03F0E4CF02F0E4CF5D
:104CD00001F0E4CF00F0E4CFD9FF1200D9CFE5FF17
:104CE000E1CFD9FF00C0E5FF01C0E5FF02C0E5FF4D
:104CF00003C0E5FF04C0E5FF020EDBCF00F005CFE7
:104D000001F0026A014A022A06CF03F0046A015048
:104D1000031803E10250041801E001D00ED0000E88
:104D20000F010525016E026A070E022201C0E9FF8C
:104D300002C0EAFF00C0EFFF052BE4CF04F0E4CF90
:104D400003F0E4CF02F0E4CF01F0E4CF00F0E4CFD1
:104D5000D9FF1200F3CFE5FFF4CFE5FFE9CFE5FF80
:104D6000EACFE5FFFACFE5FFFBCFE5FF0F010351E7
:104D70000101726F0F0104510101736FD650706F02
:104D8000D750716FF2A411D00F01033F01D0042B53
:104D9000F2940F0103510101726F0F0104510101DF
:104DA000736FD650706FD750716F5CEC2DF0E4CFFD
:104DB000FBFFE4CFFAFFE4CFEAFFE4CFE9FFE4CF63
:104DC000F4FFE4CFF3FF110000C0E5FF01C0E5FFF1
:104DD00002C0E5FF010E006ED0EC28F0016E01C0AC
:104DE00002F0015023E00050E56E82EC2CF0016EE1
:104DF000E652015010E10A0E005C0BE20A0E006E52
:104E0000E56E82EC2CF0016EE652015004E1E86898
:104E10000ED0E8680CD00150021802E0E86807D014
:104E2000002A1B0E005CD8E3E86801D0E86AE4CFF2
:104E300002F0E4CF01F0E4CF00F01200D9CFE5FF9B
:104E4000E1CFD9FF00C0E5FF01C0E5FF020EDBCFD7
:104E500000F0030EDBCF01F001A002D0898601D063
:104E6000899601A202D0898801D0899801A402D034
:104E7000898E01D0899E01A602D08B8001D08B90B3
:104E8000010E0016005002E08B8201D08A860000DD
:104E9000000000000000005002E08B9201D08A96D2
:104EA000E4CF01F0E4CF00F0E4CFD9FF120000C05E
:104EB000E5FF01C0E5FF02C0E5FF03C0E5FF99C1C2
:104EC00000F09AC101F00101993F01D09A2B0050E6
:104ED000E56E82EC2CF0E652036E026A99C100F096
:104EE0009AC101F00101993F01D09A2B0050E56E63
:104EF00082EC2CF0E652016A02120150031203C048
:104F0000F3FF0250E4CF03F0E4CF02F0E4CF01F06E
:104F1000E4CF00F01200D9CFE5FFE1CFD9FF00C008
:104F2000E5FF01C0E5FF02C0E5FF03C0E5FF04C0E7
:104F3000E5FF020EDBCF00F0030EDBCF01F0040E25
:104F4000DBCF02F0050EDBCF03F0060EDBCFE9FF6F
:104F5000070EDBCFEAFF080EDBCF04F040EC04F0D5
:104F6000E4CF04F0E4CF03F0E4CF02F0E4CF01F0AB
:104F7000E4CF00F0E4CFD9FF120000C0E5FF01C08C
:104F8000E5FF02C0E5FF006EC70E0F010A25016EA6
:104F9000026A0A0E022201C0E9FF02C0EAFF00C055
:104FA000EFFF220E0A5D01E20A2B00500A0A0FE110
:104FB0000F010A51E56E800EE56E0A0EE56EC70E12
:104FC000E56EC8EC1EF0040EE1260F010A6BE4CF7B
:104FD00002F0E4CF01F0E4CF00F012000F01056B06
:104FE0000F01066B0F010769898C929CB06A3F0E16
:104FF000AF6EB886AC8AAC84AC8CAC90AB8CAB8E0C
:105000000101BB6B0101B56B0101B86B0101B96B0B
:105010000101BA6B000EE56A82EC2CF00F01096FFA
:10502000E6529F989F9A010E0F01086F0101906B45
:10503000916B2F0E926FB9EC2CF01200D9CFE5FFD7
:10504000E1CFD9FF00C0E5FF01C0E5FF02C0E5FFE9
:10505000020EDBCF00F0030EDBCF01F029EC2DF0C8
:105060000044FE0B026E006A015001E1002A00506C
:10507000D880E866D890006A0036025000120050CE
:10508000E56EE9EC2AF0E652E4CF02F0E4CF01F05D
:10509000E4CF00F0E4CFD9FF1200D9CFE5FFE1CF94
:1050A000D9FF00C0E5FF01C0E5FF02C0E5FF020E29
:1050B000DBCF00F0030EDBCF01F0040EDBCF02F0FC
:1050C0003F0E6D166C6A6B6A00506C1201506D12C7
:1050D000938493820F013995399302C06EFF6C8AD5
:1050E000A49EA49CE4CF02F0E4CF01F0E4CF00F052
:1050F000E4CFD9FF1200D9CFE5FFE1CFD9FF00C03F
:10510000E5FF01C0E5FF02C0E5FF03C0E5FF020EB9
:10511000DBCF00F0030EDBCF01F0040EDBCF02F09B
:10512000050EDBCF03F0060EDBCFE9FF070EDBCF6A
:10513000EAFF0CEC0FF0E4CF03F0E4CF02F0E4CF91
:1051400001F0E4CF00F0E4CFD9FF12000F010351CA
:105150000101766F0F0104510101776FD650746F12
:10516000D750756F76510F01031905E10101775191
:105170000F0104190CE00F0103510101766F0F01BB
:1051800004510101776FD650746FD750756F77C196
:10519000E9FF76C1F4FF75C1F3FF010174511200FC
:1051A00000C0E5FF01C0E5FF0101B9510101C219CD
:1051B00005E00101B9510101B81902E1E86A15D011
:1051C000B9C100F00101B92B016A600E0026000E82
:1051D000012200C0E9FF01C0EAFFEFCF00F0B951A2
:1051E000800A02E10101B96B0050E4CF01F0E4CF85
:1051F00000F01200D8CFE5FFE0CFE5FFE56EF3CF7A
:10520000E5FFF4CFE5FFE9CFE5FFEACFE5FFFACF11
:10521000E5FFFBCFE5FFD8EC14F0E6EC2CF0E4CF93
:10522000FBFFE4CFFAFFE4CFEAFFE4CFE9FFE4CFEE
:10523000F4FFE4CFF3FFE450E4CFE0FFE4CFD8FF86
:105240001000D9CFE5FFE1CFD9FF00C0E5FF020E86
:10525000DBCF00F0030EDBCFA8FF00C0A9FFA69EA6
:10526000A69CA684F29EF29C550EA76EAA0EA76E6F
:10527000A682A6A202D00000FCD7E86AA6B6E82A59
:10528000A694F28EF28CE4CF00F0E4CFD9FF1200A6
:10529000D9CFE5FFE1CFD9FF00C0E5FF01C0E5FFB1
:1052A000020EDBCF00F00050020DF450016EF3CF80
:1052B00000F0300E0026010E012200C0E9FF01C0FF
:1052C000EAFFEECF00F0EFCF01F001C0F3FF005096
:1052D000E4CF01F0E4CF00F0E4CFD9FF1200D9CF42
:1052E000E5FFE1CFD9FF00C0E5FF01C0E5FF020EF9
:1052F000DBCF00F00050020DF450016EF3CF00F050
:10530000260E00260F0E012200C0E9FF01C0EAFFB1
:10531000EECF00F0EFCF01F001C0F3FF0050E4CF7B
:1053200001F0E4CF00F0E4CFD9FF1200D9CFE5FFC0
:10533000E1CFD9FF00C0E5FF01C0E5FF02C0E5FFF6
:10534000020EDBCF00F099C101F09AC102F0010119
:10535000993F01D09A2B0050E56E0150E56E21EC8B
:1053600029F0E652E652E4CF02F0E4CF01F0E4CFB8
:1053700000F0E4CFD9FF1200D9CFE5FFE1CFD9FF8C
:1053800000C0E5FF01C0E5FF020EDBCF00F0030E19
:10539000DBCF01F001380F0BE56E0050E56E1EEC1F
:1053A00027F0E652E6520150E56E0050E56E1EEC25
:1053B00027F0E652E652E4CF01F0E4CF00F0E4CF6C
:1053C000D9FF120001012951E56E2851E56E2751E0
:1053D000E56E2651E56E2551E56E2451E56E2351AB
:1053E000E56E2251E56E2151E56E2051E56E000E0D
:1053F000E56E370EE56E0A0EE56EB2EC25F00D0E89
:10540000E126120001011951E56E1851E56E1751A0
:10541000E56E1651E56E1551E56E1451E56E1351AA
:10542000E56E1251E56E1151E56E1051E56E000EFC
:10543000E56E360EE56EF40EE56EB2EC25F00D0E5F
:10544000E1261200E8AE0AD0F3CFEAFFEE50EECF2D
:10545000F3FFEECFF4FFEECFE9FF1200E8BC54EF0C
:105460002DF0E9CFF6FFF3CFF7FFF86E0900F55006
:105470000900F5CFF3FF0900F5CFF4FF0900F5CFE0
:10548000E9FF120000C0E5FF01C0E5FF0F01055173
:105490000F01061902E1E86A0FD0000E0F01062580
:1054A000006E016A070E012200C0E9FF01C0EAFF99
:1054B000EFCF00F0062B0050E4CF01F0E4CF00F076
:1054C0001200F2CFEAFFF29EA69EA69CA684E9CF28
:1054D000A9FFF3CFAAFFE4CFA8FF03EC2DF0F4CF90
:1054E000A8FF03EC2DF0F6CFA8FF03EC2DF0F7CFCB
:1054F000A8FF03EC2DF0A694EABEF28E1200F2CFC4
:10550000F6FFF29EA69EA69CE9CFA9FFF3CFAAFFC5
:10551000A680A850A94AAA2AA680A8CFF3FFA94A24
:10552000AA2AA680A8CFF4FFA94AAA2AA680A8CFB3
:10553000EAFFF6BEF28E1200E8AE08D0F3CFEAFF23
:10554000EE50EECFF3FFEECFF4FF1200E8BC56EFC3
:105550002DF0E9CFF6FFF3CFF7FFF86E0900F55015
:105560000900F5CFF3FF0900F5CFF4FF1200F2CFE9
:10557000EAFFF29EA69EA69CA684E9CFA9FFF3CFE0
:10558000AAFFE4CFA8FF03EC2DF0F4CFA8FF03ECB3
:105590002DF0F6CFA8FF03EC2DF0A694EABEF28E14
:1055A0001200D9CFE5FFE1CFD9FF00C0E5FF020E21
:1055B000DBCF00F000C009FF0050E56E000EE56A89
:1055C00021EC29F0E652E652E4CF00F0E4CFD9FF17
:1055D0001200D9CFE5FFE1CFD9FF00C0E5FF020EF1
:1055E000DBCF00F06C9E00C06FFF6CAE02D0E868AD
:1055F00003D007EC2CF0E86AE4CF00F0E4CFD9FF49
:105600001200F2CFF6FFF29EA69EA69CE9CFA9FF5C
:10561000F3CFAAFFA680A850A94AAA2AA680A8CF9D
:10562000F3FFA94AAA2AA680A8CFF4FFF6BEF28EFD
:1056300012003BEC19F0800EE56E010EE56EAD0E2A
:10564000E56EF2EC25F0030EE126800EE56E010E0C
:10565000E56EB10EE56EF2EC25F0030EE1261200C8
:105660000101AD510DE192860F0138979288928E1B
:105670009480948293860F013997938A399B06D040
:105680000101AD51010A02E10EEC0AF0120000C066
:10569000E5FF01C0E5FF600E0101B925006E016A5A
:1056A000000E012200C0E9FF01C0EAFFEFCF00F0C9
:1056B0000050E4CF01F0E4CF00F01200D9CFE5FFB5
:1056C000E1CFD9FF00C0E5FF020EDBCF00F0610E95
:1056D000005C05E37B0E005C02E2010E01D0E86A8B
:1056E000E4CF00F0E4CFD9FF1200D9CFE5FFE1CF3E
:1056F000D9FF00C0E5FF020EDBCF00F000C008FFBD
:10570000005004E1B9EC2CF09D9A9D98E4CF00F094
:10571000E4CFD9FF120000C0E5FF01C0E5FF99C149
:1057200000F09AC101F00101993F01D09A2B00507D
:10573000E56E82EC2CF0E652E4CF01F0E4CF00F00D
:105740001200E8AE06D0F3CFEAFFEE50EECFF3FF43
:105750001200E8BC52EF2DF0E9CFF6FFF3CFF7FFD0
:10576000F86E0900F5500900F5CFF3FF1200F2CFF3
:10577000EAFFF29EA69EA69CA684E9CFA9FFF3CFDE
:10578000AAFFE4CFA8FF03EC2DF0F4CFA8FF03ECB1
:105790002DF0A694EABEF28E120018EEFFF028EE6D
:1057A000FFF0F86AA68EA69CE9680E0EEA6E006805
:1057B000000EED6A0050FDE108EC24F0DAEC15F083
:1057C000FFD7FF000000000000FF000000000800FD
:1057D0000000004200000000000000000000000087
:1057E00000000000000000000101B151010A09E1C0
:1057F000040EE56E050EE56E0FEC23F0E652E65260
:1058000005D0050EE56E72EC25F0E652120000C0E0
:10581000E5FF01C0E5FF1F0E6B14006E016A6DB459
:10582000012A015000120050F6E1E4CF01F0E4CF6C
:1058300000F01200F2CFF6FFF29EA69EA69CE9CFE2
:10584000A9FFF3CFAAFFA680A850A94AAA2AA6803A
:10585000A8CFF3FFF6BEF28E120039EC2DF0EEEC7D
:1058600027F0D58ED59CD59AD588D596D594D58256
:10587000D580F28AF184D08EF28EF28C1200F2CFB3
:10588000EAFFF29EA69EA69CA684E9CFA9FFF3CFCD
:10589000AAFFE4CFA8FF03EC2DF0A694EABEF28E97
:1058A0001200E8AE04D0F3CFEAFFEE501200E8BCDD
:1058B0004AEF2DF0E9CFF6FFF3CFF7FFF86E0900BE
:1058C000F5501200E8AE0BD0F3CFEAFFE4CFEEFFC5
:1058D000F4CFEEFFF6CFEEFFF7CFEEFF1200E8BCFD
:1058E0004EEF2DF01200E8AE09D0F3CFEAFFE4CF7F
:1058F000EEFFF4CFEEFFF6CFEEFF1200E8BC58EF5C
:105900002DF01200D9CFE5FFE1CFD9FF020EDBCF9A
:10591000A9FFA69CA69EA680A850E4CFD9FF12009E
:1059200000C0E5FF07EC2CF06B862FEC2DF0006E2D
:105930000050FBE06F50E4CF00F01200F2CFF6FF12
:10594000F29EA69EA69CE9CFA9FFF3CFAAFFA68050
:10595000A850F6BEF28E1200E8AE07D0F3CFEAFFF1
:10596000E4CFEEFFF4CFEEFF1200E8BC4CEF2DF0D9
:105970001200ACA2FED7898CAE500000AE50AB989E
:10598000AB88AB869D8A9D981200700ED36E9B8C5F
:10599000FF0E9268936894689668626AF19E12009E
:1059A00000C0E5FFE4EC26F0006E005001E1FF00CE
:1059B000E4CF00F01200E8AE05D0F3CFEAFFE4CF69
:1059C000EEFF1200E8BC50EF2DF012001200432051
:1059D00074322025642025640A00430025630000FA
:1059E000010E0101C56F1C0E0101996F9A6B19EC34
:1059F0002BF012000101C56B1C0E0101996F9A6B0F
:105A000019EC2BF01200550EA76EAA0EA76EA682F7
:105A1000A6B2FED7A94AAA2A07EC2CF0A49E6B8A4C
:105A20006B88A4AEFED7120007EC2CF0A49E6B9AF4
:105A30006B88A4AEFED712000100C2570000000F11
:105A400000002600000007EC2CF06B826BB2FED742
:105A5000120007EC2CF06B806BB0FED712006DA02B
:105A600002D0010E01D0E86A1200ACA2FED7AD6EE2
:105A70001200C5EC2CF012000101C35112000F01FD
:105A800008511200D0EC28F01200E8CF7FFF12007E
:105A9000C96E12009EEF2CF0B7EF2BF061EF2AF0E9
:105AA0003FEF2CF01AEF2CF07FEF2AF001EF2BF0F4
:0A5AB000B7EF2AF0120012001200F6
:00000001FF
